{
  "_format": "hh-sol-artifact-1",
  "contractName": "LikhaNFT",
  "sourceName": "contracts/LikhaNFTMintingOffice.sol",
  "abi": [
    {
      "inputs": [],
      "stateMutability": "nonpayable",
      "type": "constructor"
    },
    {
      "anonymous": false,
      "inputs": [
        {
          "indexed": true,
          "internalType": "address",
          "name": "owner",
          "type": "address"
        },
        {
          "indexed": true,
          "internalType": "address",
          "name": "approved",
          "type": "address"
        },
        {
          "indexed": true,
          "internalType": "uint256",
          "name": "tokenId",
          "type": "uint256"
        }
      ],
      "name": "Approval",
      "type": "event"
    },
    {
      "anonymous": false,
      "inputs": [
        {
          "indexed": true,
          "internalType": "address",
          "name": "owner",
          "type": "address"
        },
        {
          "indexed": true,
          "internalType": "address",
          "name": "operator",
          "type": "address"
        },
        {
          "indexed": false,
          "internalType": "bool",
          "name": "approved",
          "type": "bool"
        }
      ],
      "name": "ApprovalForAll",
      "type": "event"
    },
    {
      "anonymous": false,
      "inputs": [
        {
          "indexed": true,
          "internalType": "uint256",
          "name": "tokenID",
          "type": "uint256"
        },
        {
          "indexed": false,
          "internalType": "string",
          "name": "message",
          "type": "string"
        }
      ],
      "name": "BurnEvent",
      "type": "event"
    },
    {
      "anonymous": false,
      "inputs": [
        {
          "indexed": true,
          "internalType": "uint256",
          "name": "tokenID",
          "type": "uint256"
        },
        {
          "indexed": false,
          "internalType": "string",
          "name": "dbID",
          "type": "string"
        },
        {
          "indexed": false,
          "internalType": "string",
          "name": "message",
          "type": "string"
        }
      ],
      "name": "MintEvent",
      "type": "event"
    },
    {
      "anonymous": false,
      "inputs": [
        {
          "indexed": true,
          "internalType": "address",
          "name": "from",
          "type": "address"
        },
        {
          "indexed": true,
          "internalType": "address",
          "name": "to",
          "type": "address"
        },
        {
          "indexed": true,
          "internalType": "uint256",
          "name": "tokenId",
          "type": "uint256"
        }
      ],
      "name": "Transfer",
      "type": "event"
    },
    {
      "inputs": [
        {
          "internalType": "address",
          "name": "to",
          "type": "address"
        },
        {
          "internalType": "uint256",
          "name": "tokenId",
          "type": "uint256"
        }
      ],
      "name": "approve",
      "outputs": [],
      "stateMutability": "nonpayable",
      "type": "function"
    },
    {
      "inputs": [
        {
          "internalType": "address",
          "name": "owner",
          "type": "address"
        }
      ],
      "name": "balanceOf",
      "outputs": [
        {
          "internalType": "uint256",
          "name": "",
          "type": "uint256"
        }
      ],
      "stateMutability": "view",
      "type": "function"
    },
    {
      "inputs": [
        {
          "internalType": "uint256",
          "name": "tokenId",
          "type": "uint256"
        }
      ],
      "name": "burnToken",
      "outputs": [],
      "stateMutability": "nonpayable",
      "type": "function"
    },
    {
      "inputs": [
        {
          "internalType": "uint256",
          "name": "tokenId",
          "type": "uint256"
        }
      ],
      "name": "getApproved",
      "outputs": [
        {
          "internalType": "address",
          "name": "",
          "type": "address"
        }
      ],
      "stateMutability": "view",
      "type": "function"
    },
    {
      "inputs": [
        {
          "internalType": "address",
          "name": "owner",
          "type": "address"
        },
        {
          "internalType": "address",
          "name": "operator",
          "type": "address"
        }
      ],
      "name": "isApprovedForAll",
      "outputs": [
        {
          "internalType": "bool",
          "name": "",
          "type": "bool"
        }
      ],
      "stateMutability": "view",
      "type": "function"
    },
    {
      "inputs": [
        {
          "internalType": "string",
          "name": "tokenURI",
          "type": "string"
        },
        {
          "internalType": "address",
          "name": "nft_owner",
          "type": "address"
        },
        {
          "internalType": "string",
          "name": "dbID",
          "type": "string"
        },
        {
          "internalType": "uint256",
          "name": "royaltyValue",
          "type": "uint256"
        }
      ],
      "name": "mintToken",
      "outputs": [
        {
          "internalType": "uint256",
          "name": "",
          "type": "uint256"
        }
      ],
      "stateMutability": "nonpayable",
      "type": "function"
    },
    {
      "inputs": [],
      "name": "name",
      "outputs": [
        {
          "internalType": "string",
          "name": "",
          "type": "string"
        }
      ],
      "stateMutability": "view",
      "type": "function"
    },
    {
      "inputs": [
        {
          "internalType": "uint256",
          "name": "tokenId",
          "type": "uint256"
        }
      ],
      "name": "ownerOf",
      "outputs": [
        {
          "internalType": "address",
          "name": "",
          "type": "address"
        }
      ],
      "stateMutability": "view",
      "type": "function"
    },
    {
      "inputs": [
        {
          "internalType": "address",
          "name": "newOwner",
          "type": "address"
        }
      ],
      "name": "replaceOwner",
      "outputs": [],
      "stateMutability": "nonpayable",
      "type": "function"
    },
    {
      "inputs": [
        {
          "internalType": "uint256",
          "name": "tokenId",
          "type": "uint256"
        },
        {
          "internalType": "uint256",
          "name": "value",
          "type": "uint256"
        }
      ],
      "name": "royaltyInfo",
      "outputs": [
        {
          "internalType": "address",
          "name": "receiver",
          "type": "address"
        },
        {
          "internalType": "uint256",
          "name": "royaltyAmount",
          "type": "uint256"
        }
      ],
      "stateMutability": "view",
      "type": "function"
    },
    {
      "inputs": [
        {
          "internalType": "address",
          "name": "from",
          "type": "address"
        },
        {
          "internalType": "address",
          "name": "to",
          "type": "address"
        },
        {
          "internalType": "uint256",
          "name": "tokenId",
          "type": "uint256"
        }
      ],
      "name": "safeTransferFrom",
      "outputs": [],
      "stateMutability": "nonpayable",
      "type": "function"
    },
    {
      "inputs": [
        {
          "internalType": "address",
          "name": "from",
          "type": "address"
        },
        {
          "internalType": "address",
          "name": "to",
          "type": "address"
        },
        {
          "internalType": "uint256",
          "name": "tokenId",
          "type": "uint256"
        },
        {
          "internalType": "bytes",
          "name": "_data",
          "type": "bytes"
        }
      ],
      "name": "safeTransferFrom",
      "outputs": [],
      "stateMutability": "nonpayable",
      "type": "function"
    },
    {
      "inputs": [
        {
          "internalType": "address",
          "name": "operator",
          "type": "address"
        },
        {
          "internalType": "bool",
          "name": "approved",
          "type": "bool"
        }
      ],
      "name": "setApprovalForAll",
      "outputs": [],
      "stateMutability": "nonpayable",
      "type": "function"
    },
    {
      "inputs": [
        {
          "internalType": "bytes4",
          "name": "interfaceId",
          "type": "bytes4"
        }
      ],
      "name": "supportsInterface",
      "outputs": [
        {
          "internalType": "bool",
          "name": "",
          "type": "bool"
        }
      ],
      "stateMutability": "view",
      "type": "function"
    },
    {
      "inputs": [],
      "name": "symbol",
      "outputs": [
        {
          "internalType": "string",
          "name": "",
          "type": "string"
        }
      ],
      "stateMutability": "view",
      "type": "function"
    },
    {
      "inputs": [
        {
          "internalType": "uint256",
          "name": "tokenId",
          "type": "uint256"
        }
      ],
      "name": "tokenURI",
      "outputs": [
        {
          "internalType": "string",
          "name": "",
          "type": "string"
        }
      ],
      "stateMutability": "view",
      "type": "function"
    },
    {
      "inputs": [
        {
          "internalType": "address",
          "name": "from",
          "type": "address"
        },
        {
          "internalType": "address",
          "name": "to",
          "type": "address"
        },
        {
          "internalType": "uint256",
          "name": "tokenId",
          "type": "uint256"
        }
      ],
      "name": "transferFrom",
      "outputs": [],
      "stateMutability": "nonpayable",
      "type": "function"
    }
  ],
  "bytecode": "0x60806040523480156200001157600080fd5b5060408051808201825260058152644c696b686160d81b6020808301918252835180850190945260048452634c4b484160e01b9084015281519192916200005b916000916200008c565b508051620000719060019060208401906200008c565b5050600880546001600160a01b03191633179055506200016f565b8280546200009a9062000132565b90600052602060002090601f016020900481019282620000be576000855562000109565b82601f10620000d957805160ff191683800117855562000109565b8280016001018555821562000109579182015b8281111562000109578251825591602001919060010190620000ec565b50620001179291506200011b565b5090565b5b808211156200011757600081556001016200011c565b600181811c908216806200014757607f821691505b602082108114156200016957634e487b7160e01b600052602260045260246000fd5b50919050565b611c3b806200017f6000396000f3fe608060405234801561001057600080fd5b506004361061010b5760003560e01c806370a08231116100a2578063a39a45b711610071578063a39a45b714610247578063b88d4fde1461025a578063c87b56dd1461026d578063e985e9c514610280578063f95dcd6f146102bc57600080fd5b806370a08231146101f85780637b47ec1a1461021957806395d89b411461022c578063a22cb4651461023457600080fd5b806323b872dd116100de57806323b872dd1461018d5780632a55205a146101a057806342842e0e146101d25780636352211e146101e557600080fd5b806301ffc9a71461011057806306fdde0314610138578063081812fc1461014d578063095ea7b314610178575b600080fd5b61012361011e36600461182b565b6102cf565b60405190151581526020015b60405180910390f35b6101406102e0565b60405161012f91906119ad565b61016061015b3660046118dc565b610372565b6040516001600160a01b03909116815260200161012f565b61018b610186366004611802565b6103ff565b005b61018b61019b366004611714565b610515565b6101b36101ae3660046118f4565b610546565b604080516001600160a01b03909316835260208301919091520161012f565b61018b6101e0366004611714565b6105a4565b6101606101f33660046118dc565b6105bf565b61020b6102063660046116c8565b610636565b60405190815260200161012f565b61018b6102273660046118dc565b6106bd565b610140610791565b61018b6102423660046117c8565b6107a0565b61018b6102553660046116c8565b6107af565b61018b61026836600461174f565b6107e8565b61014061027b3660046118dc565b610820565b61012361028e3660046116e2565b6001600160a01b03918216600090815260056020908152604080832093909416825291909152205460ff1690565b61020b6102ca366004611863565b610997565b60006102da82610a32565b92915050565b6060600080546102ef90611b43565b80601f016020809104026020016040519081016040528092919081815260200182805461031b90611b43565b80156103685780601f1061033d57610100808354040283529160200191610368565b820191906000526020600020905b81548152906001019060200180831161034b57829003601f168201915b5050505050905090565b600061037d82610a57565b6103e35760405162461bcd60e51b815260206004820152602c60248201527f4552433732313a20617070726f76656420717565727920666f72206e6f6e657860448201526b34b9ba32b73a103a37b5b2b760a11b60648201526084015b60405180910390fd5b506000908152600460205260409020546001600160a01b031690565b600061040a826105bf565b9050806001600160a01b0316836001600160a01b031614156104785760405162461bcd60e51b815260206004820152602160248201527f4552433732313a20617070726f76616c20746f2063757272656e74206f776e656044820152603960f91b60648201526084016103da565b336001600160a01b03821614806104945750610494813361028e565b6105065760405162461bcd60e51b815260206004820152603860248201527f4552433732313a20617070726f76652063616c6c6572206973206e6f74206f7760448201527f6e6572206e6f7220617070726f76656420666f7220616c6c000000000000000060648201526084016103da565b6105108383610a74565b505050565b61051f3382610ae2565b61053b5760405162461bcd60e51b81526004016103da90611a64565b610510838383610bc8565b60008281526007602090815260408083208151808301909252546001600160a01b038116808352600160a01b90910462ffffff169282018390529291612710906105909086611ae1565b61059a9190611acd565b9150509250929050565b610510838383604051806020016040528060008152506107e8565b6000818152600260205260408120546001600160a01b0316806102da5760405162461bcd60e51b815260206004820152602960248201527f4552433732313a206f776e657220717565727920666f72206e6f6e657869737460448201526832b73a103a37b5b2b760b91b60648201526084016103da565b60006001600160a01b0382166106a15760405162461bcd60e51b815260206004820152602a60248201527f4552433732313a2062616c616e636520717565727920666f7220746865207a65604482015269726f206164647265737360b01b60648201526084016103da565b506001600160a01b031660009081526003602052604090205490565b336106c7826105bf565b6001600160a01b0316146107295760405162461bcd60e51b815260206004820152602360248201527f596f7520617265206e6f7420746865206f776e6572206f66207468697320746f60448201526235b2b760e91b60648201526084016103da565b61073281610d64565b807ff42abf1c9939f4daf061a169c281d7488f32dd50628ef716e6ac0165f7f188d660405161078690602080825260119082015270105b88139195081dd85cc8189d5c9b9959607a1b604082015260600190565b60405180910390a250565b6060600180546102ef90611b43565b6107ab338383610da7565b5050565b6008546001600160a01b031633146107c657600080fd5b600880546001600160a01b0319166001600160a01b0392909216919091179055565b6107f23383610ae2565b61080e5760405162461bcd60e51b81526004016103da90611a64565b61081a84848484610e76565b50505050565b606061082b82610a57565b6108915760405162461bcd60e51b815260206004820152603160248201527f45524337323155524953746f726167653a2055524920717565727920666f72206044820152703737b732bc34b9ba32b73a103a37b5b2b760791b60648201526084016103da565b600082815260066020526040812080546108aa90611b43565b80601f01602080910402602001604051908101604052809291908181526020018280546108d690611b43565b80156109235780601f106108f857610100808354040283529160200191610923565b820191906000526020600020905b81548152906001019060200180831161090657829003601f168201915b50505050509050600061094160408051602081019091526000815290565b9050805160001415610954575092915050565b81511561098657808260405160200161096e929190611941565b60405160208183030381529060405292505050919050565b61098f84610ea9565b949350505050565b6008546000906001600160a01b031633146109b157600080fd5b60006109bc60095490565b90506109c88582610f81565b6109d28187610f9b565b82156109e3576109e3818685611026565b6109f1600980546001019055565b807f5a3a181d5be7e2e4b2be6cf355e243d69ac84ed68cc6cc9a1d3f878cd6fd213585604051610a2191906119c0565b60405180910390a295945050505050565b60006001600160e01b0319821663152a902d60e11b14806102da57506102da826110cf565b6000908152600260205260409020546001600160a01b0316151590565b600081815260046020526040902080546001600160a01b0319166001600160a01b0384169081179091558190610aa9826105bf565b6001600160a01b03167f8c5be1e5ebec7d5bd14f71427d1e84f3dd0314c0f7b2291e5b200ac8c7c3b92560405160405180910390a45050565b6000610aed82610a57565b610b4e5760405162461bcd60e51b815260206004820152602c60248201527f4552433732313a206f70657261746f7220717565727920666f72206e6f6e657860448201526b34b9ba32b73a103a37b5b2b760a11b60648201526084016103da565b6000610b59836105bf565b9050806001600160a01b0316846001600160a01b03161480610b945750836001600160a01b0316610b8984610372565b6001600160a01b0316145b8061098f57506001600160a01b0380821660009081526005602090815260408083209388168352929052205460ff1661098f565b826001600160a01b0316610bdb826105bf565b6001600160a01b031614610c3f5760405162461bcd60e51b815260206004820152602560248201527f4552433732313a207472616e736665722066726f6d20696e636f72726563742060448201526437bbb732b960d91b60648201526084016103da565b6001600160a01b038216610ca15760405162461bcd60e51b8152602060048201526024808201527f4552433732313a207472616e7366657220746f20746865207a65726f206164646044820152637265737360e01b60648201526084016103da565b610cac600082610a74565b6001600160a01b0383166000908152600360205260408120805460019290610cd5908490611b00565b90915550506001600160a01b0382166000908152600360205260408120805460019290610d03908490611ab5565b909155505060008181526002602052604080822080546001600160a01b0319166001600160a01b0386811691821790925591518493918716917fddf252ad1be2c89b69c2b068fc378daa952ba7f163c4a11628f55a4df523b3ef91a4505050565b610d6d8161111f565b60008181526006602052604090208054610d8690611b43565b159050610da4576000818152600660205260408120610da491611544565b50565b816001600160a01b0316836001600160a01b03161415610e095760405162461bcd60e51b815260206004820152601960248201527f4552433732313a20617070726f766520746f2063616c6c65720000000000000060448201526064016103da565b6001600160a01b03838116600081815260056020908152604080832094871680845294825291829020805460ff191686151590811790915591519182527f17307eab39ab6107e8899845ad3d59bd9653f200f220920489ca2b5937696c31910160405180910390a3505050565b610e81848484610bc8565b610e8d848484846111ba565b61081a5760405162461bcd60e51b81526004016103da90611a12565b6060610eb482610a57565b610f185760405162461bcd60e51b815260206004820152602f60248201527f4552433732314d657461646174613a2055524920717565727920666f72206e6f60448201526e3732bc34b9ba32b73a103a37b5b2b760891b60648201526084016103da565b6000610f2f60408051602081019091526000815290565b90506000815111610f4f5760405180602001604052806000815250610f7a565b80610f59846112c4565b604051602001610f6a929190611941565b6040516020818303038152906040525b9392505050565b6107ab8282604051806020016040528060008152506113de565b610fa482610a57565b6110075760405162461bcd60e51b815260206004820152602e60248201527f45524337323155524953746f726167653a2055524920736574206f66206e6f6e60448201526d32bc34b9ba32b73a103a37b5b2b760911b60648201526084016103da565b600082815260066020908152604090912082516105109284019061157e565b6127108111156110785760405162461bcd60e51b815260206004820152601a60248201527f45524332393831526f79616c746965733a20546f6f206869676800000000000060448201526064016103da565b6040805180820182526001600160a01b03938416815262ffffff928316602080830191825260009687526007905291909420935184549151909216600160a01b026001600160b81b03199091169190921617179055565b60006001600160e01b031982166380ac58cd60e01b148061110057506001600160e01b03198216635b5e139f60e01b145b806102da57506301ffc9a760e01b6001600160e01b03198316146102da565b600061112a826105bf565b9050611137600083610a74565b6001600160a01b0381166000908152600360205260408120805460019290611160908490611b00565b909155505060008281526002602052604080822080546001600160a01b0319169055518391906001600160a01b038416907fddf252ad1be2c89b69c2b068fc378daa952ba7f163c4a11628f55a4df523b3ef908390a45050565b60006001600160a01b0384163b156112bc57604051630a85bd0160e11b81526001600160a01b0385169063150b7a02906111fe903390899088908890600401611970565b602060405180830381600087803b15801561121857600080fd5b505af1925050508015611248575060408051601f3d908101601f1916820190925261124591810190611847565b60015b6112a2573d808015611276576040519150601f19603f3d011682016040523d82523d6000602084013e61127b565b606091505b50805161129a5760405162461bcd60e51b81526004016103da90611a12565b805181602001fd5b6001600160e01b031916630a85bd0160e11b14905061098f565b50600161098f565b6060816112e85750506040805180820190915260018152600360fc1b602082015290565b8160005b811561131257806112fc81611b7e565b915061130b9050600a83611acd565b91506112ec565b60008167ffffffffffffffff81111561133b57634e487b7160e01b600052604160045260246000fd5b6040519080825280601f01601f191660200182016040528015611365576020820181803683370190505b5090505b841561098f5761137a600183611b00565b9150611387600a86611b99565b611392906030611ab5565b60f81b8183815181106113b557634e487b7160e01b600052603260045260246000fd5b60200101906001600160f81b031916908160001a9053506113d7600a86611acd565b9450611369565b6113e88383611411565b6113f560008484846111ba565b6105105760405162461bcd60e51b81526004016103da90611a12565b6001600160a01b0382166114675760405162461bcd60e51b815260206004820181905260248201527f4552433732313a206d696e7420746f20746865207a65726f206164647265737360448201526064016103da565b61147081610a57565b156114bd5760405162461bcd60e51b815260206004820152601c60248201527f4552433732313a20746f6b656e20616c7265616479206d696e7465640000000060448201526064016103da565b6001600160a01b03821660009081526003602052604081208054600192906114e6908490611ab5565b909155505060008181526002602052604080822080546001600160a01b0319166001600160a01b03861690811790915590518392907fddf252ad1be2c89b69c2b068fc378daa952ba7f163c4a11628f55a4df523b3ef908290a45050565b50805461155090611b43565b6000825580601f10611560575050565b601f016020900490600052602060002090810190610da49190611602565b82805461158a90611b43565b90600052602060002090601f0160209004810192826115ac57600085556115f2565b82601f106115c557805160ff19168380011785556115f2565b828001600101855582156115f2579182015b828111156115f25782518255916020019190600101906115d7565b506115fe929150611602565b5090565b5b808211156115fe5760008155600101611603565b600067ffffffffffffffff8084111561163257611632611bd9565b604051601f8501601f19908116603f0116810190828211818310171561165a5761165a611bd9565b8160405280935085815286868601111561167357600080fd5b858560208301376000602087830101525050509392505050565b80356001600160a01b03811681146116a457600080fd5b919050565b600082601f8301126116b9578081fd5b610f7a83833560208501611617565b6000602082840312156116d9578081fd5b610f7a8261168d565b600080604083850312156116f4578081fd5b6116fd8361168d565b915061170b6020840161168d565b90509250929050565b600080600060608486031215611728578081fd5b6117318461168d565b925061173f6020850161168d565b9150604084013590509250925092565b60008060008060808587031215611764578081fd5b61176d8561168d565b935061177b6020860161168d565b925060408501359150606085013567ffffffffffffffff81111561179d578182fd5b8501601f810187136117ad578182fd5b6117bc87823560208401611617565b91505092959194509250565b600080604083850312156117da578182fd5b6117e38361168d565b9150602083013580151581146117f7578182fd5b809150509250929050565b60008060408385031215611814578182fd5b61181d8361168d565b946020939093013593505050565b60006020828403121561183c578081fd5b8135610f7a81611bef565b600060208284031215611858578081fd5b8151610f7a81611bef565b60008060008060808587031215611878578384fd5b843567ffffffffffffffff8082111561188f578586fd5b61189b888389016116a9565b95506118a96020880161168d565b945060408701359150808211156118be578384fd5b506118cb878288016116a9565b949793965093946060013593505050565b6000602082840312156118ed578081fd5b5035919050565b60008060408385031215611906578182fd5b50508035926020909101359150565b6000815180845261192d816020860160208601611b17565b601f01601f19169290920160200192915050565b60008351611953818460208801611b17565b835190830190611967818360208801611b17565b01949350505050565b6001600160a01b03858116825284166020820152604081018390526080606082018190526000906119a390830184611915565b9695505050505050565b602081526000610f7a6020830184611915565b6040815260006119d36040830184611915565b8281036020840152601e81527f416e204e465420776173206d696e746564207375636365737366756c6c79000060208201526040810191505092915050565b60208082526032908201527f4552433732313a207472616e7366657220746f206e6f6e20455243373231526560408201527131b2b4bb32b91034b6b83632b6b2b73a32b960711b606082015260800190565b60208082526031908201527f4552433732313a207472616e736665722063616c6c6572206973206e6f74206f6040820152701ddb995c881b9bdc88185c1c1c9bdd9959607a1b606082015260800190565b60008219821115611ac857611ac8611bad565b500190565b600082611adc57611adc611bc3565b500490565b6000816000190483118215151615611afb57611afb611bad565b500290565b600082821015611b1257611b12611bad565b500390565b60005b83811015611b32578181015183820152602001611b1a565b8381111561081a5750506000910152565b600181811c90821680611b5757607f821691505b60208210811415611b7857634e487b7160e01b600052602260045260246000fd5b50919050565b6000600019821415611b9257611b92611bad565b5060010190565b600082611ba857611ba8611bc3565b500690565b634e487b7160e01b600052601160045260246000fd5b634e487b7160e01b600052601260045260246000fd5b634e487b7160e01b600052604160045260246000fd5b6001600160e01b031981168114610da457600080fdfea2646970667358221220dc82857957f28e0529e5526f56ecd776a0eabd2e88b07095a58cf753236b871b64736f6c63430008040033",
  "linkReferences": {},
  "deployedLinkReferences": {}
}