{
  "_format": "hh-sol-artifact-1",
  "contractName": "LikhaNFT",
  "sourceName": "contracts/LikhaNFTMintingOffice.sol",
  "abi": [
    {
      "inputs": [],
      "stateMutability": "nonpayable",
      "type": "constructor"
    },
    {
      "anonymous": false,
      "inputs": [
        {
          "indexed": true,
          "internalType": "address",
          "name": "owner",
          "type": "address"
        },
        {
          "indexed": true,
          "internalType": "address",
          "name": "approved",
          "type": "address"
        },
        {
          "indexed": true,
          "internalType": "uint256",
          "name": "tokenId",
          "type": "uint256"
        }
      ],
      "name": "Approval",
      "type": "event"
    },
    {
      "anonymous": false,
      "inputs": [
        {
          "indexed": true,
          "internalType": "address",
          "name": "owner",
          "type": "address"
        },
        {
          "indexed": true,
          "internalType": "address",
          "name": "operator",
          "type": "address"
        },
        {
          "indexed": false,
          "internalType": "bool",
          "name": "approved",
          "type": "bool"
        }
      ],
      "name": "ApprovalForAll",
      "type": "event"
    },
    {
      "anonymous": false,
      "inputs": [
        {
          "indexed": true,
          "internalType": "uint256",
          "name": "tokenID",
          "type": "uint256"
        },
        {
          "indexed": false,
          "internalType": "string",
          "name": "message",
          "type": "string"
        }
      ],
      "name": "BurnEvent",
      "type": "event"
    },
    {
      "anonymous": false,
      "inputs": [
        {
          "indexed": true,
          "internalType": "uint256",
          "name": "tokenID",
          "type": "uint256"
        },
        {
          "indexed": false,
          "internalType": "string",
          "name": "dbID",
          "type": "string"
        },
        {
          "indexed": false,
          "internalType": "string",
          "name": "message",
          "type": "string"
        }
      ],
      "name": "MintEvent",
      "type": "event"
    },
    {
      "anonymous": false,
      "inputs": [
        {
          "indexed": true,
          "internalType": "address",
          "name": "from",
          "type": "address"
        },
        {
          "indexed": true,
          "internalType": "address",
          "name": "to",
          "type": "address"
        },
        {
          "indexed": true,
          "internalType": "uint256",
          "name": "tokenId",
          "type": "uint256"
        }
      ],
      "name": "Transfer",
      "type": "event"
    },
    {
      "inputs": [
        {
          "internalType": "address",
          "name": "to",
          "type": "address"
        },
        {
          "internalType": "uint256",
          "name": "tokenId",
          "type": "uint256"
        }
      ],
      "name": "approve",
      "outputs": [],
      "stateMutability": "nonpayable",
      "type": "function"
    },
    {
      "inputs": [
        {
          "internalType": "address",
          "name": "owner",
          "type": "address"
        }
      ],
      "name": "balanceOf",
      "outputs": [
        {
          "internalType": "uint256",
          "name": "",
          "type": "uint256"
        }
      ],
      "stateMutability": "view",
      "type": "function"
    },
    {
      "inputs": [
        {
          "internalType": "uint256",
          "name": "tokenId",
          "type": "uint256"
        }
      ],
      "name": "burnToken",
      "outputs": [],
      "stateMutability": "nonpayable",
      "type": "function"
    },
    {
      "inputs": [
        {
          "internalType": "uint256",
          "name": "tokenId",
          "type": "uint256"
        }
      ],
      "name": "getApproved",
      "outputs": [
        {
          "internalType": "address",
          "name": "",
          "type": "address"
        }
      ],
      "stateMutability": "view",
      "type": "function"
    },
    {
      "inputs": [
        {
          "internalType": "address",
          "name": "owner",
          "type": "address"
        },
        {
          "internalType": "address",
          "name": "operator",
          "type": "address"
        }
      ],
      "name": "isApprovedForAll",
      "outputs": [
        {
          "internalType": "bool",
          "name": "",
          "type": "bool"
        }
      ],
      "stateMutability": "view",
      "type": "function"
    },
    {
      "inputs": [
        {
          "internalType": "string",
          "name": "tokenURI",
          "type": "string"
        },
        {
          "internalType": "address",
          "name": "nft_owner",
          "type": "address"
        },
        {
          "internalType": "string",
          "name": "dbID",
          "type": "string"
        },
        {
          "internalType": "uint256",
          "name": "royaltyValue",
          "type": "uint256"
        }
      ],
      "name": "mintToken",
      "outputs": [
        {
          "internalType": "uint256",
          "name": "",
          "type": "uint256"
        }
      ],
      "stateMutability": "nonpayable",
      "type": "function"
    },
    {
      "inputs": [],
      "name": "name",
      "outputs": [
        {
          "internalType": "string",
          "name": "",
          "type": "string"
        }
      ],
      "stateMutability": "view",
      "type": "function"
    },
    {
      "inputs": [
        {
          "internalType": "uint256",
          "name": "tokenId",
          "type": "uint256"
        }
      ],
      "name": "ownerOf",
      "outputs": [
        {
          "internalType": "address",
          "name": "",
          "type": "address"
        }
      ],
      "stateMutability": "view",
      "type": "function"
    },
    {
      "inputs": [
        {
          "internalType": "address",
          "name": "newOwner",
          "type": "address"
        }
      ],
      "name": "replaceOwner",
      "outputs": [],
      "stateMutability": "nonpayable",
      "type": "function"
    },
    {
      "inputs": [
        {
          "internalType": "uint256",
          "name": "tokenId",
          "type": "uint256"
        },
        {
          "internalType": "uint256",
          "name": "value",
          "type": "uint256"
        }
      ],
      "name": "royaltyInfo",
      "outputs": [
        {
          "internalType": "address",
          "name": "receiver",
          "type": "address"
        },
        {
          "internalType": "uint256",
          "name": "royaltyAmount",
          "type": "uint256"
        }
      ],
      "stateMutability": "view",
      "type": "function"
    },
    {
      "inputs": [
        {
          "internalType": "address",
          "name": "from",
          "type": "address"
        },
        {
          "internalType": "address",
          "name": "to",
          "type": "address"
        },
        {
          "internalType": "uint256",
          "name": "tokenId",
          "type": "uint256"
        }
      ],
      "name": "safeTransferFrom",
      "outputs": [],
      "stateMutability": "nonpayable",
      "type": "function"
    },
    {
      "inputs": [
        {
          "internalType": "address",
          "name": "from",
          "type": "address"
        },
        {
          "internalType": "address",
          "name": "to",
          "type": "address"
        },
        {
          "internalType": "uint256",
          "name": "tokenId",
          "type": "uint256"
        },
        {
          "internalType": "bytes",
          "name": "_data",
          "type": "bytes"
        }
      ],
      "name": "safeTransferFrom",
      "outputs": [],
      "stateMutability": "nonpayable",
      "type": "function"
    },
    {
      "inputs": [
        {
          "internalType": "address",
          "name": "operator",
          "type": "address"
        },
        {
          "internalType": "bool",
          "name": "approved",
          "type": "bool"
        }
      ],
      "name": "setApprovalForAll",
      "outputs": [],
      "stateMutability": "nonpayable",
      "type": "function"
    },
    {
      "inputs": [
        {
          "internalType": "bytes4",
          "name": "interfaceId",
          "type": "bytes4"
        }
      ],
      "name": "supportsInterface",
      "outputs": [
        {
          "internalType": "bool",
          "name": "",
          "type": "bool"
        }
      ],
      "stateMutability": "view",
      "type": "function"
    },
    {
      "inputs": [],
      "name": "symbol",
      "outputs": [
        {
          "internalType": "string",
          "name": "",
          "type": "string"
        }
      ],
      "stateMutability": "view",
      "type": "function"
    },
    {
      "inputs": [
        {
          "internalType": "uint256",
          "name": "tokenId",
          "type": "uint256"
        }
      ],
      "name": "tokenURI",
      "outputs": [
        {
          "internalType": "string",
          "name": "",
          "type": "string"
        }
      ],
      "stateMutability": "view",
      "type": "function"
    },
    {
      "inputs": [
        {
          "internalType": "address",
          "name": "from",
          "type": "address"
        },
        {
          "internalType": "address",
          "name": "to",
          "type": "address"
        },
        {
          "internalType": "uint256",
          "name": "tokenId",
          "type": "uint256"
        }
      ],
      "name": "transferFrom",
      "outputs": [],
      "stateMutability": "nonpayable",
      "type": "function"
    }
  ],
  "bytecode": "0x60806040523480156200001157600080fd5b5060408051808201825260058152644c696b686160d81b6020808301918252835180850190945260048452634c4b484160e01b9084015281519192916200005b916000916200008c565b508051620000719060019060208401906200008c565b5050600880546001600160a01b03191633179055506200016f565b8280546200009a9062000132565b90600052602060002090601f016020900481019282620000be576000855562000109565b82601f10620000d957805160ff191683800117855562000109565b8280016001018555821562000109579182015b8281111562000109578251825591602001919060010190620000ec565b50620001179291506200011b565b5090565b5b808211156200011757600081556001016200011c565b600181811c908216806200014757607f821691505b602082108114156200016957634e487b7160e01b600052602260045260246000fd5b50919050565b611c2a806200017f6000396000f3fe608060405234801561001057600080fd5b506004361061010b5760003560e01c806370a08231116100a2578063a39a45b711610071578063a39a45b714610247578063b88d4fde1461025a578063c87b56dd1461026d578063e985e9c514610280578063f95dcd6f146102bc57600080fd5b806370a08231146101f85780637b47ec1a1461021957806395d89b411461022c578063a22cb4651461023457600080fd5b806323b872dd116100de57806323b872dd1461018d5780632a55205a146101a057806342842e0e146101d25780636352211e146101e557600080fd5b806301ffc9a71461011057806306fdde0314610138578063081812fc1461014d578063095ea7b314610178575b600080fd5b61012361011e36600461181a565b6102cf565b60405190151581526020015b60405180910390f35b6101406102e0565b60405161012f919061199c565b61016061015b3660046118cb565b610372565b6040516001600160a01b03909116815260200161012f565b61018b6101863660046117f1565b6103ff565b005b61018b61019b366004611703565b610515565b6101b36101ae3660046118e3565b610546565b604080516001600160a01b03909316835260208301919091520161012f565b61018b6101e0366004611703565b6105a4565b6101606101f33660046118cb565b6105bf565b61020b6102063660046116b7565b610636565b60405190815260200161012f565b61018b6102273660046118cb565b6106bd565b610140610791565b61018b6102423660046117b7565b6107a0565b61018b6102553660046116b7565b610865565b61018b61026836600461173e565b61089e565b61014061027b3660046118cb565b6108d6565b61012361028e3660046116d1565b6001600160a01b03918216600090815260056020908152604080832093909416825291909152205460ff1690565b61020b6102ca366004611852565b610a4d565b60006102da82610ae8565b92915050565b6060600080546102ef90611b32565b80601f016020809104026020016040519081016040528092919081815260200182805461031b90611b32565b80156103685780601f1061033d57610100808354040283529160200191610368565b820191906000526020600020905b81548152906001019060200180831161034b57829003601f168201915b5050505050905090565b600061037d82610b0d565b6103e35760405162461bcd60e51b815260206004820152602c60248201527f4552433732313a20617070726f76656420717565727920666f72206e6f6e657860448201526b34b9ba32b73a103a37b5b2b760a11b60648201526084015b60405180910390fd5b506000908152600460205260409020546001600160a01b031690565b600061040a826105bf565b9050806001600160a01b0316836001600160a01b031614156104785760405162461bcd60e51b815260206004820152602160248201527f4552433732313a20617070726f76616c20746f2063757272656e74206f776e656044820152603960f91b60648201526084016103da565b336001600160a01b03821614806104945750610494813361028e565b6105065760405162461bcd60e51b815260206004820152603860248201527f4552433732313a20617070726f76652063616c6c6572206973206e6f74206f7760448201527f6e6572206e6f7220617070726f76656420666f7220616c6c000000000000000060648201526084016103da565b6105108383610b2a565b505050565b61051f3382610b98565b61053b5760405162461bcd60e51b81526004016103da90611a53565b610510838383610c7e565b60008281526007602090815260408083208151808301909252546001600160a01b038116808352600160a01b90910462ffffff169282018390529291612710906105909086611ad0565b61059a9190611abc565b9150509250929050565b6105108383836040518060200160405280600081525061089e565b6000818152600260205260408120546001600160a01b0316806102da5760405162461bcd60e51b815260206004820152602960248201527f4552433732313a206f776e657220717565727920666f72206e6f6e657869737460448201526832b73a103a37b5b2b760b91b60648201526084016103da565b60006001600160a01b0382166106a15760405162461bcd60e51b815260206004820152602a60248201527f4552433732313a2062616c616e636520717565727920666f7220746865207a65604482015269726f206164647265737360b01b60648201526084016103da565b506001600160a01b031660009081526003602052604090205490565b336106c7826105bf565b6001600160a01b0316146107295760405162461bcd60e51b815260206004820152602360248201527f596f7520617265206e6f7420746865206f776e6572206f66207468697320746f60448201526235b2b760e91b60648201526084016103da565b61073281610e1e565b807ff42abf1c9939f4daf061a169c281d7488f32dd50628ef716e6ac0165f7f188d660405161078690602080825260119082015270105b88139195081dd85cc8189d5c9b9959607a1b604082015260600190565b60405180910390a250565b6060600180546102ef90611b32565b6001600160a01b0382163314156107f95760405162461bcd60e51b815260206004820152601960248201527f4552433732313a20617070726f766520746f2063616c6c65720000000000000060448201526064016103da565b3360008181526005602090815260408083206001600160a01b03871680855290835292819020805460ff191686151590811790915590519081529192917f17307eab39ab6107e8899845ad3d59bd9653f200f220920489ca2b5937696c31910160405180910390a35050565b6008546001600160a01b0316331461087c57600080fd5b600880546001600160a01b0319166001600160a01b0392909216919091179055565b6108a83383610b98565b6108c45760405162461bcd60e51b81526004016103da90611a53565b6108d084848484610e61565b50505050565b60606108e182610b0d565b6109475760405162461bcd60e51b815260206004820152603160248201527f45524337323155524953746f726167653a2055524920717565727920666f72206044820152703737b732bc34b9ba32b73a103a37b5b2b760791b60648201526084016103da565b6000828152600660205260408120805461096090611b32565b80601f016020809104026020016040519081016040528092919081815260200182805461098c90611b32565b80156109d95780601f106109ae576101008083540402835291602001916109d9565b820191906000526020600020905b8154815290600101906020018083116109bc57829003601f168201915b5050505050905060006109f760408051602081019091526000815290565b9050805160001415610a0a575092915050565b815115610a3c578082604051602001610a24929190611930565b60405160208183030381529060405292505050919050565b610a4584610e94565b949350505050565b6008546000906001600160a01b03163314610a6757600080fd5b6000610a7260095490565b9050610a7e8582610f6c565b610a888187610f8a565b8215610a9957610a99818685611015565b610aa7600980546001019055565b807f5a3a181d5be7e2e4b2be6cf355e243d69ac84ed68cc6cc9a1d3f878cd6fd213585604051610ad791906119af565b60405180910390a295945050505050565b60006001600160e01b0319821663152a902d60e11b14806102da57506102da826110be565b6000908152600260205260409020546001600160a01b0316151590565b600081815260046020526040902080546001600160a01b0319166001600160a01b0384169081179091558190610b5f826105bf565b6001600160a01b03167f8c5be1e5ebec7d5bd14f71427d1e84f3dd0314c0f7b2291e5b200ac8c7c3b92560405160405180910390a45050565b6000610ba382610b0d565b610c045760405162461bcd60e51b815260206004820152602c60248201527f4552433732313a206f70657261746f7220717565727920666f72206e6f6e657860448201526b34b9ba32b73a103a37b5b2b760a11b60648201526084016103da565b6000610c0f836105bf565b9050806001600160a01b0316846001600160a01b03161480610c4a5750836001600160a01b0316610c3f84610372565b6001600160a01b0316145b80610a4557506001600160a01b0380821660009081526005602090815260408083209388168352929052205460ff16610a45565b826001600160a01b0316610c91826105bf565b6001600160a01b031614610cf95760405162461bcd60e51b815260206004820152602960248201527f4552433732313a207472616e73666572206f6620746f6b656e2074686174206960448201526839903737ba1037bbb760b91b60648201526084016103da565b6001600160a01b038216610d5b5760405162461bcd60e51b8152602060048201526024808201527f4552433732313a207472616e7366657220746f20746865207a65726f206164646044820152637265737360e01b60648201526084016103da565b610d66600082610b2a565b6001600160a01b0383166000908152600360205260408120805460019290610d8f908490611aef565b90915550506001600160a01b0382166000908152600360205260408120805460019290610dbd908490611aa4565b909155505060008181526002602052604080822080546001600160a01b0319166001600160a01b0386811691821790925591518493918716917fddf252ad1be2c89b69c2b068fc378daa952ba7f163c4a11628f55a4df523b3ef91a4505050565b610e278161110e565b60008181526006602052604090208054610e4090611b32565b159050610e5e576000818152600660205260408120610e5e91611533565b50565b610e6c848484610c7e565b610e78848484846111a9565b6108d05760405162461bcd60e51b81526004016103da90611a01565b6060610e9f82610b0d565b610f035760405162461bcd60e51b815260206004820152602f60248201527f4552433732314d657461646174613a2055524920717565727920666f72206e6f60448201526e3732bc34b9ba32b73a103a37b5b2b760891b60648201526084016103da565b6000610f1a60408051602081019091526000815290565b90506000815111610f3a5760405180602001604052806000815250610f65565b80610f44846112b3565b604051602001610f55929190611930565b6040516020818303038152906040525b9392505050565b610f868282604051806020016040528060008152506113cd565b5050565b610f9382610b0d565b610ff65760405162461bcd60e51b815260206004820152602e60248201527f45524337323155524953746f726167653a2055524920736574206f66206e6f6e60448201526d32bc34b9ba32b73a103a37b5b2b760911b60648201526084016103da565b600082815260066020908152604090912082516105109284019061156d565b6127108111156110675760405162461bcd60e51b815260206004820152601a60248201527f45524332393831526f79616c746965733a20546f6f206869676800000000000060448201526064016103da565b6040805180820182526001600160a01b03938416815262ffffff928316602080830191825260009687526007905291909420935184549151909216600160a01b026001600160b81b03199091169190921617179055565b60006001600160e01b031982166380ac58cd60e01b14806110ef57506001600160e01b03198216635b5e139f60e01b145b806102da57506301ffc9a760e01b6001600160e01b03198316146102da565b6000611119826105bf565b9050611126600083610b2a565b6001600160a01b038116600090815260036020526040812080546001929061114f908490611aef565b909155505060008281526002602052604080822080546001600160a01b0319169055518391906001600160a01b038416907fddf252ad1be2c89b69c2b068fc378daa952ba7f163c4a11628f55a4df523b3ef908390a45050565b60006001600160a01b0384163b156112ab57604051630a85bd0160e11b81526001600160a01b0385169063150b7a02906111ed90339089908890889060040161195f565b602060405180830381600087803b15801561120757600080fd5b505af1925050508015611237575060408051601f3d908101601f1916820190925261123491810190611836565b60015b611291573d808015611265576040519150601f19603f3d011682016040523d82523d6000602084013e61126a565b606091505b5080516112895760405162461bcd60e51b81526004016103da90611a01565b805181602001fd5b6001600160e01b031916630a85bd0160e11b149050610a45565b506001610a45565b6060816112d75750506040805180820190915260018152600360fc1b602082015290565b8160005b811561130157806112eb81611b6d565b91506112fa9050600a83611abc565b91506112db565b60008167ffffffffffffffff81111561132a57634e487b7160e01b600052604160045260246000fd5b6040519080825280601f01601f191660200182016040528015611354576020820181803683370190505b5090505b8415610a4557611369600183611aef565b9150611376600a86611b88565b611381906030611aa4565b60f81b8183815181106113a457634e487b7160e01b600052603260045260246000fd5b60200101906001600160f81b031916908160001a9053506113c6600a86611abc565b9450611358565b6113d78383611400565b6113e460008484846111a9565b6105105760405162461bcd60e51b81526004016103da90611a01565b6001600160a01b0382166114565760405162461bcd60e51b815260206004820181905260248201527f4552433732313a206d696e7420746f20746865207a65726f206164647265737360448201526064016103da565b61145f81610b0d565b156114ac5760405162461bcd60e51b815260206004820152601c60248201527f4552433732313a20746f6b656e20616c7265616479206d696e7465640000000060448201526064016103da565b6001600160a01b03821660009081526003602052604081208054600192906114d5908490611aa4565b909155505060008181526002602052604080822080546001600160a01b0319166001600160a01b03861690811790915590518392907fddf252ad1be2c89b69c2b068fc378daa952ba7f163c4a11628f55a4df523b3ef908290a45050565b50805461153f90611b32565b6000825580601f1061154f575050565b601f016020900490600052602060002090810190610e5e91906115f1565b82805461157990611b32565b90600052602060002090601f01602090048101928261159b57600085556115e1565b82601f106115b457805160ff19168380011785556115e1565b828001600101855582156115e1579182015b828111156115e15782518255916020019190600101906115c6565b506115ed9291506115f1565b5090565b5b808211156115ed57600081556001016115f2565b600067ffffffffffffffff8084111561162157611621611bc8565b604051601f8501601f19908116603f0116810190828211818310171561164957611649611bc8565b8160405280935085815286868601111561166257600080fd5b858560208301376000602087830101525050509392505050565b80356001600160a01b038116811461169357600080fd5b919050565b600082601f8301126116a8578081fd5b610f6583833560208501611606565b6000602082840312156116c8578081fd5b610f658261167c565b600080604083850312156116e3578081fd5b6116ec8361167c565b91506116fa6020840161167c565b90509250929050565b600080600060608486031215611717578081fd5b6117208461167c565b925061172e6020850161167c565b9150604084013590509250925092565b60008060008060808587031215611753578081fd5b61175c8561167c565b935061176a6020860161167c565b925060408501359150606085013567ffffffffffffffff81111561178c578182fd5b8501601f8101871361179c578182fd5b6117ab87823560208401611606565b91505092959194509250565b600080604083850312156117c9578182fd5b6117d28361167c565b9150602083013580151581146117e6578182fd5b809150509250929050565b60008060408385031215611803578182fd5b61180c8361167c565b946020939093013593505050565b60006020828403121561182b578081fd5b8135610f6581611bde565b600060208284031215611847578081fd5b8151610f6581611bde565b60008060008060808587031215611867578384fd5b843567ffffffffffffffff8082111561187e578586fd5b61188a88838901611698565b95506118986020880161167c565b945060408701359150808211156118ad578384fd5b506118ba87828801611698565b949793965093946060013593505050565b6000602082840312156118dc578081fd5b5035919050565b600080604083850312156118f5578182fd5b50508035926020909101359150565b6000815180845261191c816020860160208601611b06565b601f01601f19169290920160200192915050565b60008351611942818460208801611b06565b835190830190611956818360208801611b06565b01949350505050565b6001600160a01b038581168252841660208201526040810183905260806060820181905260009061199290830184611904565b9695505050505050565b602081526000610f656020830184611904565b6040815260006119c26040830184611904565b8281036020840152601e81527f416e204e465420776173206d696e746564207375636365737366756c6c79000060208201526040810191505092915050565b60208082526032908201527f4552433732313a207472616e7366657220746f206e6f6e20455243373231526560408201527131b2b4bb32b91034b6b83632b6b2b73a32b960711b606082015260800190565b60208082526031908201527f4552433732313a207472616e736665722063616c6c6572206973206e6f74206f6040820152701ddb995c881b9bdc88185c1c1c9bdd9959607a1b606082015260800190565b60008219821115611ab757611ab7611b9c565b500190565b600082611acb57611acb611bb2565b500490565b6000816000190483118215151615611aea57611aea611b9c565b500290565b600082821015611b0157611b01611b9c565b500390565b60005b83811015611b21578181015183820152602001611b09565b838111156108d05750506000910152565b600181811c90821680611b4657607f821691505b60208210811415611b6757634e487b7160e01b600052602260045260246000fd5b50919050565b6000600019821415611b8157611b81611b9c565b5060010190565b600082611b9757611b97611bb2565b500690565b634e487b7160e01b600052601160045260246000fd5b634e487b7160e01b600052601260045260246000fd5b634e487b7160e01b600052604160045260246000fd5b6001600160e01b031981168114610e5e57600080fdfea2646970667358221220b8b48c1e5b22467c6b525485c34b2cdff54bfebeac4d0f0a9545fa3dd8bd875b64736f6c63430008040033",
  "linkReferences": {},
  "deployedLinkReferences": {}
}