{
  "_format": "hh-sol-artifact-1",
  "contractName": "LikhaNFTMarketplace",
  "sourceName": "contracts/LikhaMarketplace.sol",
  "abi": [
    {
      "inputs": [],
      "stateMutability": "nonpayable",
      "type": "constructor"
    },
    {
      "anonymous": false,
      "inputs": [
        {
          "indexed": false,
          "internalType": "string",
          "name": "dbID",
          "type": "string"
        },
        {
          "indexed": false,
          "internalType": "address",
          "name": "seller",
          "type": "address"
        },
        {
          "indexed": false,
          "internalType": "string",
          "name": "message",
          "type": "string"
        }
      ],
      "name": "ItemCancelEvent",
      "type": "event"
    },
    {
      "anonymous": false,
      "inputs": [
        {
          "indexed": false,
          "internalType": "string",
          "name": "dbID",
          "type": "string"
        },
        {
          "indexed": false,
          "internalType": "address",
          "name": "seller",
          "type": "address"
        },
        {
          "indexed": false,
          "internalType": "uint256",
          "name": "price",
          "type": "uint256"
        },
        {
          "indexed": false,
          "internalType": "string",
          "name": "message",
          "type": "string"
        }
      ],
      "name": "ItemPostEvent",
      "type": "event"
    },
    {
      "anonymous": false,
      "inputs": [
        {
          "indexed": false,
          "internalType": "string",
          "name": "dbID",
          "type": "string"
        },
        {
          "indexed": false,
          "internalType": "address",
          "name": "bidder",
          "type": "address"
        },
        {
          "indexed": false,
          "internalType": "uint256",
          "name": "bidAmount",
          "type": "uint256"
        },
        {
          "indexed": false,
          "internalType": "uint256",
          "name": "bidID",
          "type": "uint256"
        }
      ],
      "name": "NFTBidEvent",
      "type": "event"
    },
    {
      "anonymous": false,
      "inputs": [
        {
          "indexed": false,
          "internalType": "string",
          "name": "dbID",
          "type": "string"
        },
        {
          "indexed": false,
          "internalType": "address",
          "name": "buyer",
          "type": "address"
        },
        {
          "indexed": false,
          "internalType": "address",
          "name": "seller",
          "type": "address"
        },
        {
          "indexed": false,
          "internalType": "uint256",
          "name": "price",
          "type": "uint256"
        },
        {
          "indexed": false,
          "internalType": "uint256",
          "name": "credited",
          "type": "uint256"
        },
        {
          "indexed": false,
          "internalType": "uint256",
          "name": "royalty",
          "type": "uint256"
        },
        {
          "indexed": false,
          "internalType": "address",
          "name": "ERC20Token",
          "type": "address"
        },
        {
          "indexed": false,
          "internalType": "string",
          "name": "message",
          "type": "string"
        }
      ],
      "name": "NFTSaleEvent",
      "type": "event"
    },
    {
      "inputs": [],
      "name": "burnContract",
      "outputs": [],
      "stateMutability": "nonpayable",
      "type": "function"
    },
    {
      "inputs": [
        {
          "internalType": "string",
          "name": "dbID",
          "type": "string"
        }
      ],
      "name": "buyNFT",
      "outputs": [],
      "stateMutability": "payable",
      "type": "function"
    },
    {
      "inputs": [
        {
          "internalType": "string",
          "name": "dbID",
          "type": "string"
        }
      ],
      "name": "cancelPosting",
      "outputs": [],
      "stateMutability": "nonpayable",
      "type": "function"
    },
    {
      "inputs": [
        {
          "internalType": "string",
          "name": "dbID",
          "type": "string"
        }
      ],
      "name": "endAuction",
      "outputs": [],
      "stateMutability": "nonpayable",
      "type": "function"
    },
    {
      "inputs": [
        {
          "internalType": "string",
          "name": "dbID",
          "type": "string"
        }
      ],
      "name": "fetchBidItems",
      "outputs": [
        {
          "components": [
            {
              "internalType": "address",
              "name": "bidder",
              "type": "address"
            },
            {
              "internalType": "uint256",
              "name": "bidAmount",
              "type": "uint256"
            },
            {
              "internalType": "uint256",
              "name": "processed",
              "type": "uint256"
            }
          ],
          "internalType": "struct LikhaNFTMarketplace.BidItem[]",
          "name": "",
          "type": "tuple[]"
        }
      ],
      "stateMutability": "view",
      "type": "function"
    },
    {
      "inputs": [
        {
          "internalType": "string",
          "name": "dbID",
          "type": "string"
        }
      ],
      "name": "fetchPostingStatus",
      "outputs": [
        {
          "components": [
            {
              "internalType": "string",
              "name": "dbID",
              "type": "string"
            },
            {
              "internalType": "address",
              "name": "NFTContractAddress",
              "type": "address"
            },
            {
              "internalType": "uint256",
              "name": "tokenId",
              "type": "uint256"
            },
            {
              "internalType": "address payable",
              "name": "seller",
              "type": "address"
            },
            {
              "internalType": "uint256",
              "name": "price",
              "type": "uint256"
            },
            {
              "internalType": "uint256",
              "name": "biddable",
              "type": "uint256"
            },
            {
              "internalType": "uint256",
              "name": "bidMinimum",
              "type": "uint256"
            },
            {
              "internalType": "uint256",
              "name": "timeOfAuctionEnd",
              "type": "uint256"
            },
            {
              "internalType": "address",
              "name": "ERC20Preferred",
              "type": "address"
            },
            {
              "internalType": "uint256",
              "name": "NFTFirstPurchaseDone",
              "type": "uint256"
            },
            {
              "components": [
                {
                  "internalType": "string",
                  "name": "value",
                  "type": "string"
                },
                {
                  "internalType": "uint256",
                  "name": "valueID",
                  "type": "uint256"
                }
              ],
              "internalType": "struct LikhaNFTMarketplace.MarketSaleStatus",
              "name": "status",
              "type": "tuple"
            }
          ],
          "internalType": "struct LikhaNFTMarketplace.MarketItem",
          "name": "",
          "type": "tuple"
        }
      ],
      "stateMutability": "view",
      "type": "function"
    },
    {
      "inputs": [],
      "name": "getPlatformFee1stPurchase",
      "outputs": [
        {
          "internalType": "uint256",
          "name": "",
          "type": "uint256"
        }
      ],
      "stateMutability": "view",
      "type": "function"
    },
    {
      "inputs": [],
      "name": "getPlatformFee2ndPurchase",
      "outputs": [
        {
          "internalType": "uint256",
          "name": "",
          "type": "uint256"
        }
      ],
      "stateMutability": "view",
      "type": "function"
    },
    {
      "inputs": [
        {
          "internalType": "uint256",
          "name": "tokenID",
          "type": "uint256"
        },
        {
          "internalType": "address",
          "name": "nftContract",
          "type": "address"
        }
      ],
      "name": "isItemLocked",
      "outputs": [
        {
          "internalType": "uint256",
          "name": "",
          "type": "uint256"
        }
      ],
      "stateMutability": "view",
      "type": "function"
    },
    {
      "inputs": [
        {
          "internalType": "string",
          "name": "dbID",
          "type": "string"
        },
        {
          "internalType": "uint256",
          "name": "bidID",
          "type": "uint256"
        }
      ],
      "name": "nftBidAccept",
      "outputs": [],
      "stateMutability": "nonpayable",
      "type": "function"
    },
    {
      "inputs": [
        {
          "internalType": "string",
          "name": "dbID",
          "type": "string"
        },
        {
          "internalType": "uint256",
          "name": "amount",
          "type": "uint256"
        }
      ],
      "name": "nftBidPlacing",
      "outputs": [],
      "stateMutability": "nonpayable",
      "type": "function"
    },
    {
      "inputs": [
        {
          "internalType": "string",
          "name": "dbID",
          "type": "string"
        },
        {
          "internalType": "address",
          "name": "NFTAddress",
          "type": "address"
        },
        {
          "internalType": "address",
          "name": "seller",
          "type": "address"
        },
        {
          "internalType": "uint256",
          "name": "NFTTokenID",
          "type": "uint256"
        },
        {
          "internalType": "uint256",
          "name": "timeOfAuctionEnd",
          "type": "uint256"
        },
        {
          "internalType": "address",
          "name": "ERC20Preferred",
          "type": "address"
        },
        {
          "internalType": "uint256",
          "name": "bidMinumum",
          "type": "uint256"
        }
      ],
      "name": "nftBidPosting",
      "outputs": [],
      "stateMutability": "nonpayable",
      "type": "function"
    },
    {
      "inputs": [
        {
          "internalType": "string",
          "name": "dbID",
          "type": "string"
        },
        {
          "internalType": "address",
          "name": "NFTAddress",
          "type": "address"
        },
        {
          "internalType": "address",
          "name": "seller",
          "type": "address"
        },
        {
          "internalType": "uint256",
          "name": "NFTTokenID",
          "type": "uint256"
        },
        {
          "internalType": "uint256",
          "name": "price",
          "type": "uint256"
        },
        {
          "internalType": "uint256",
          "name": "biddable",
          "type": "uint256"
        },
        {
          "internalType": "address",
          "name": "ERC20Preferred",
          "type": "address"
        },
        {
          "internalType": "uint256",
          "name": "bidMinimum",
          "type": "uint256"
        }
      ],
      "name": "nftSellPosting",
      "outputs": [],
      "stateMutability": "nonpayable",
      "type": "function"
    },
    {
      "inputs": [
        {
          "internalType": "uint256",
          "name": "newPlatformFee",
          "type": "uint256"
        }
      ],
      "name": "setPlatformFee1stPurchase",
      "outputs": [],
      "stateMutability": "nonpayable",
      "type": "function"
    },
    {
      "inputs": [
        {
          "internalType": "uint256",
          "name": "newPlatformFee",
          "type": "uint256"
        }
      ],
      "name": "setPlatformFee2ndPurchase",
      "outputs": [],
      "stateMutability": "nonpayable",
      "type": "function"
    }
  ],
  "bytecode": "0x6080604052600160005534801561001557600080fd5b5060016000819055600380546001600160a01b031916331790556103e8905560fa600255613ec1806100486000396000f3fe6080604052600436106100e85760003560e01c80638f3a34231161008a578063d275ff7811610059578063d275ff7814610255578063d5b8333514610295578063e4f05185146102b5578063f1171730146102d557600080fd5b80638f3a3423146101bb578063915b0741146101e8578063a0ac20ae14610215578063ce2ba9bf1461023557600080fd5b806368cc74f6116100c657806368cc74f61461014857806374a493c3146101685780637cc4330a146101885780638d012300146101a857600080fd5b80631c0973a4146100ed5780634fa157da146101045780635ea4e8d914610124575b600080fd5b3480156100f957600080fd5b506101026102ea565b005b34801561011057600080fd5b5061010261011f36600461371e565b61030f565b34801561013057600080fd5b506002545b6040519081526020015b60405180910390f35b34801561015457600080fd5b5061010261016336600461368c565b61072a565b34801561017457600080fd5b506101026101833660046137ba565b610ac3565b34801561019457600080fd5b506101026101a33660046137ba565b61103e565b6101026101b6366004613651565b611485565b3480156101c757600080fd5b506101db6101d6366004613651565b6119c7565b60405161013f9190613c61565b3480156101f457600080fd5b50610208610203366004613651565b611bb3565b60405161013f91906138f1565b34801561022157600080fd5b506101026102303660046137fd565b611c53565b34801561024157600080fd5b50610102610250366004613651565b611c6f565b34801561026157600080fd5b5061013561027036600461382d565b6001600160a01b03166000908152600660209081526040808320938352929052205490565b3480156102a157600080fd5b506101026102b03660046137fd565b611dce565b3480156102c157600080fd5b506101026102d0366004613651565b611dea565b3480156102e157600080fd5b50600154610135565b6003546001600160a01b0316331461030157600080fd5b6003546001600160a01b0316ff5b6003546001600160a01b0316331461032657600080fd5b6040516331a9108f60e11b8152600481018690526001600160a01b038088169190891690636352211e9060240160206040518083038186803b15801561036b57600080fd5b505afa15801561037f573d6000803e3d6000fd5b505050506040513d601f19601f820116820180604052508101906103a391906135e1565b6001600160a01b0316146103d25760405162461bcd60e51b81526004016103c990613c0f565b60405180910390fd5b60405163e985e9c560e01b81526001600160a01b03878116600483015230602483015288169063e985e9c59060440160206040518083038186803b15801561041957600080fd5b505afa15801561042d573d6000803e3d6000fd5b505050506040513d601f19601f820116820180604052508101906104519190613631565b61046d5760405162461bcd60e51b81526004016103c990613bbc565b610478606485613e20565b156104eb5760405162461bcd60e51b815260206004820152603760248201527f70726f63657373696e67206f66207072696365206e6f7420646976697369626c60448201527f6520627920313030206973206e6f7420616c6c6f77656400000000000000000060648201526084016103c9565b6001600160a01b03871660009081526006602090815260408083208884529091529020541561052c5760405162461bcd60e51b81526004016103c990613b5e565b6001600160a01b0380881660008181526006602090815260408083208a84528252808320600190558051610160810182528d81528083018590528082018b90528b861660608083019190915260808083018c905260a083018b905260c0830186905260e08301899052968916610100830152948452600583528184208b855283528184205461012082015281519586018252600886830190815267466f722053616c6560c01b958701959095529385529084019190915261014082019290925290516004906105fc908b906138b1565b90815260200160405180910390206000820151816000019080519060200190610626929190613432565b506020828101516001830180546001600160a01b039283166001600160a01b0319918216179091556040850151600285015560608501516003850180549184169183169190911790556080850151600485015560a0850151600585015560c0850151600685015560e085015160078501556101008501516008850180549190931691161790556101208301516009830155610140830151805180519192600a8501926106d59284920190613432565b506020820151816001015550509050507f6983b9ebaf6ed72504ba702cdd9389c357b4cfe946bb53b135265583ef5d5ab588878660405161071893929190613abe565b60405180910390a15050505050505050565b6003546001600160a01b0316331461074157600080fd5b6040516331a9108f60e11b8152600481018590526001600160a01b038087169190881690636352211e9060240160206040518083038186803b15801561078657600080fd5b505afa15801561079a573d6000803e3d6000fd5b505050506040513d601f19601f820116820180604052508101906107be91906135e1565b6001600160a01b0316146107e45760405162461bcd60e51b81526004016103c990613c0f565b60405163e985e9c560e01b81526001600160a01b03868116600483015230602483015287169063e985e9c59060440160206040518083038186803b15801561082b57600080fd5b505afa15801561083f573d6000803e3d6000fd5b505050506040513d601f19601f820116820180604052508101906108639190613631565b61087f5760405162461bcd60e51b81526004016103c990613bbc565b6001600160a01b0386166000908152600660209081526040808320878452909152902054156108c05760405162461bcd60e51b81526004016103c990613b5e565b6001600160a01b03808716600081815260066020908152604080832089845282528083206001908190558151610160810183528d81528084018690528083018b90528b8716606080830191909152608080830187905260a0830184905260c083018a905260e083018c9052978a16610100830152958552600584528285208b86528452938290205461012085015281519586018252600b8683019081526a2337b91030bab1ba34b7b760a91b958701959095529385529084019290925261014081019290925251600490610995908a906138b1565b908152602001604051809103902060008201518160000190805190602001906109bf929190613432565b506020828101516001830180546001600160a01b039283166001600160a01b0319918216179091556040850151600285015560608501516003850180549184169183169190911790556080850151600485015560a0850151600585015560c0850151600685015560e085015160078501556101008501516008850180549190931691161790556101208301516009830155610140830151805180519192600a850192610a6e9284920190613432565b506020820151816001015550509050507f6983b9ebaf6ed72504ba702cdd9389c357b4cfe946bb53b135265583ef5d5ab587866000604051610ab293929190613a56565b60405180910390a150505050505050565b336001600160a01b0316600483604051610add91906138b1565b908152604051908190036020019020600301546001600160a01b03161415610b535760405162461bcd60e51b8152602060048201526024808201527f42696464657220616e642073656c6c65722063616e6e6f74206265207468652060448201526373616d6560e01b60648201526084016103c9565b80600483604051610b6491906138b1565b90815260405190819003602001812060080154636eb1769f60e11b82523360048301523060248301526001600160a01b03169063dd62ed3e9060440160206040518083038186803b158015610bb857600080fd5b505afa158015610bcc573d6000803e3d6000fd5b505050506040513d601f19601f82011682018060405250810190610bf09190613815565b1015610c4f5760405162461bcd60e51b815260206004820152602860248201527f417070726f76656420616c6c6f77616e636520616d6f756e7420646f6573206e6044820152670dee840dac2e8c6d60c31b60648201526084016103c9565b80600483604051610c6091906138b1565b908152604051908190036020018120600801546370a0823160e01b82523360048301526001600160a01b0316906370a082319060240160206040518083038186803b158015610cae57600080fd5b505afa158015610cc2573d6000803e3d6000fd5b505050506040513d601f19601f82011682018060405250810190610ce69190613815565b1015610d345760405162461bcd60e51b815260206004820152601e60248201527f417070726f76656420616d6f756e7420646f6573206e6f74206d61746368000060448201526064016103c9565b6002600483604051610d4691906138b1565b908152604051908190036020019020600b015410610da65760405162461bcd60e51b815260206004820152601b60248201527f4974656d206973206e6f206c6f6e67657220617661696c61626c65000000000060448201526064016103c9565b6000600783604051610db891906138b1565b908152604051908190036020019020541115610eae5780600783604051610ddf91906138b1565b90815260200160405180910390206001600785604051610dff91906138b1565b90815260405190819003602001902054610e199190613d87565b81548110610e3757634e487b7160e01b600052603260045260246000fd5b9060005260206000209060030201600101541015610eae5760405162461bcd60e51b815260206004820152602e60248201527f626964206973206c6f776572206f7220657175616c207468616e20637572726560448201526d1b9d081a1a59da195cdd08189a5960921b60648201526084016103c9565b600482604051610ebe91906138b1565b908152604051908190036020018120600801546323b872dd60e01b82526001600160a01b0316906323b872dd90610efd903390309086906004016138cd565b602060405180830381600087803b158015610f1757600080fd5b505af1158015610f2b573d6000803e3d6000fd5b505050506040513d601f19601f82011682018060405250810190610f4f9190613631565b50600782604051610f6091906138b1565b9081526040805160209281900383018120606082018352338083528483018681526000848601818152845460018082018755958352979091209451600390970290940180546001600160a01b0319166001600160a01b039097169690961786555185830155915160029094019390935590517f0f6090d8cacfcb414d20fc390069d516a321b2460f9159b398fa14ba464dc9c2928592918591906007906110089086906138b1565b908152604051908190036020019020546110229190613d87565b6040516110329493929190613b26565b60405180910390a15050565b8060078360405161104f91906138b1565b90815260405190819003602001902054116110ac5760405162461bcd60e51b815260206004820152601a60248201527f62696420494420696e646578206f7574206f6620626f756e647300000000000060448201526064016103c9565b6007826040516110bc91906138b1565b908152602001604051809103902081815481106110e957634e487b7160e01b600052603260045260246000fd5b90600052602060002090600302016001015460048360405161110b91906138b1565b908152604051908190036020018120600801546001600160a01b03169063dd62ed3e9060079061113c9087906138b1565b9081526020016040518091039020848154811061116957634e487b7160e01b600052603260045260246000fd5b600091825260209091206003909102015460405160e083901b6001600160e01b03191681526001600160a01b03909116600482015230602482015260440160206040518083038186803b1580156111bf57600080fd5b505afa1580156111d3573d6000803e3d6000fd5b505050506040513d601f19601f820116820180604052508101906111f79190613815565b101561125f5760405162461bcd60e51b815260206004820152603160248201527f417070726f76656420616c6c6f77616e636520616d6f756e7420646f6573206e60448201527037ba1036b0ba31b41037b710313abcb2b960791b60648201526084016103c9565b60078260405161126f91906138b1565b9081526020016040518091039020818154811061129c57634e487b7160e01b600052603260045260246000fd5b9060005260206000209060030201600101546004836040516112be91906138b1565b908152604051908190036020018120600801546001600160a01b0316906370a08231906007906112ef9087906138b1565b9081526020016040518091039020848154811061131c57634e487b7160e01b600052603260045260246000fd5b600091825260209091206003909102015460405160e083901b6001600160e01b03191681526001600160a01b03909116600482015260240160206040518083038186803b15801561136c57600080fd5b505afa158015611380573d6000803e3d6000fd5b505050506040513d601f19601f820116820180604052508101906113a49190613815565b10156113f25760405162461bcd60e51b815260206004820152601e60248201527f417070726f76656420616d6f756e7420646f6573206e6f74206d61746368000060448201526064016103c9565b336001600160a01b031660048360405161140c91906138b1565b908152604051908190036020019020600301546001600160a01b0316146114755760405162461bcd60e51b815260206004820152601a60248201527f4f6e6c79204f776e65722063616e20616363657074206269647300000000000060448201526064016103c9565b61148182600283611fc7565b5050565b600260005414156114d85760405162461bcd60e51b815260206004820152601f60248201527f5265656e7472616e637947756172643a207265656e7472616e742063616c6c0060448201526064016103c9565b600260009081556040516004906114f09084906138b1565b9081526020016040518091039020600401549050600060048360405161151691906138b1565b9081526020016040518091039020600201549050600060048460405161153c91906138b1565b908152604051908190036020018120600301546001600160a01b0316915060009060049061156b9087906138b1565b908152604051908190036020018120600101546001600160a01b031691506004906115979087906138b1565b908152602001604051809103902060040154600014156116115760405162461bcd60e51b815260206004820152602f60248201527f4974656d20697320666f722061756374696f6e2e20506c6561736520706c616360448201526e19481848189a59081a5b9cdd195859608a1b60648201526084016103c9565b83341461169f5760405162461bcd60e51b815260206004820152605060248201527f41736b696e6720707269636520617265206e6f74207468652073616d6520776960448201527f74682074686520706179696e672070726963652e20506c65617365207375626d60648201526f697420612076616c69642076616c756560801b608482015260a4016103c9565b336001600160a01b03831614156116f85760405162461bcd60e51b815260206004820152601e60248201527f627579657220616e642073656c6c657220617265207468652073616d652e000060448201526064016103c9565b611703606434613e20565b156117825760405162461bcd60e51b815260206004820152604360248201527f70726f63657373696e67206f66207472616e73616374696f6e2076616c75652060448201527f6e6f7420646976697369626c6520627920313030206973206e6f7420616c6c6f6064820152621dd95960ea1b608482015260a4016103c9565b6040516331a9108f60e11b8152600481018490526001600160a01b038084169190831690636352211e9060240160206040518083038186803b1580156117c757600080fd5b505afa1580156117db573d6000803e3d6000fd5b505050506040513d601f19601f820116820180604052508101906117ff91906135e1565b6001600160a01b0316146118555760405162461bcd60e51b815260206004820152601d60248201527f53656c6c6572206e6f206c6f6e676572206f776e7320746865204e465400000060448201526064016103c9565b60405163e985e9c560e01b81526001600160a01b03838116600483015230602483015282169063e985e9c59060440160206040518083038186803b15801561189c57600080fd5b505afa1580156118b0573d6000803e3d6000fd5b505050506040513d601f19601f820116820180604052508101906118d49190613631565b61193c5760405162461bcd60e51b815260206004820152603360248201527f436f6e74726163742077617320646973616c6c6f77656420746f2074726164656044820152721037b71039b2b63632b913b9903132b430b63360691b60648201526084016103c9565b600260048660405161194e91906138b1565b908152604051908190036020019020600b0154106119ae5760405162461bcd60e51b815260206004820152601b60248201527f4974656d206973206e6f206c6f6e67657220617661696c61626c65000000000060448201526064016103c9565b6119bb8560016000611fc7565b50506001600055505050565b6119cf6134b6565b6004826040516119df91906138b1565b908152602001604051809103902060405180610160016040529081600082018054611a0990613dca565b80601f0160208091040260200160405190810160405280929190818152602001828054611a3590613dca565b8015611a825780601f10611a5757610100808354040283529160200191611a82565b820191906000526020600020905b815481529060010190602001808311611a6557829003601f168201915b505050918352505060018201546001600160a01b039081166020830152600283015460408084019190915260038401548216606084015260048401546080840152600584015460a0840152600684015460c0840152600784015460e0840152600884015490911661010083015260098301546101208301528051808201909152600a830180546101409093019282908290611b1c90613dca565b80601f0160208091040260200160405190810160405280929190818152602001828054611b4890613dca565b8015611b955780601f10611b6a57610100808354040283529160200191611b95565b820191906000526020600020905b815481529060010190602001808311611b7857829003601f168201915b50505050508152602001600182015481525050815250509050919050565b6060600782604051611bc591906138b1565b9081526020016040518091039020805480602002602001604051908101604052809291908181526020016000905b82821015611c48576000848152602090819020604080516060810182526003860290920180546001600160a01b0316835260018082015484860152600290910154918301919091529083529092019101611bf3565b505050509050919050565b6003546001600160a01b03163314611c6a57600080fd5b600155565b6003546001600160a01b03163314611c8657600080fd5b600481604051611c9691906138b1565b90815260200160405180910390206007015460001415611d085760405162461bcd60e51b815260206004820152602760248201527f4974656d20706f73746564206973206e6f74207375626a656374656420746f2060448201526630bab1ba34b7b760c91b60648201526084016103c9565b42600482604051611d1991906138b1565b9081526020016040518091039020600701541015611d945760405162461bcd60e51b815260206004820152603260248201527f43757272656e742074696d6520646f6573206e6f7420796574207061737420646044820152713ab2903230ba329037b31030bab1ba34b7b760711b60648201526084016103c9565b611dcb8160026001600785604051611dac91906138b1565b90815260405190819003602001902054611dc69190613d87565b611fc7565b50565b6003546001600160a01b03163314611de557600080fd5b600255565b6000600482604051611dfc91906138b1565b908152604051908190036020019020600301546001600160a01b03169050338114611e695760405162461bcd60e51b815260206004820152601c60248201527f54582073656e646572206973206e6f74207468652073656c6c65722e0000000060448201526064016103c9565b6002600483604051611e7b91906138b1565b908152604051908190036020019020600b015410611eeb5760405162461bcd60e51b815260206004820152602760248201527f43616e6e6f742063616e63656c206974656d73207468617420617265206e6f746044820152662061637469766560c81b60648201526084016103c9565b6040805160808101825260098183019081526810d85b98d95b1b195960ba1b60608301528152600360208201529051600490611f289085906138b1565b9081526020016040518091039020600a016000820151816000019080519060200190611f55929190613432565b5060208201518160010155905050600482604051611f7391906138b1565b90815260200160405180910390206005015460011415611f9657611f96826120bc565b7f1389084b161df5d88502b87d968c48ad054ec739e212e682bfed0a76d228ea2c8282604051611032929190613953565b6000600484604051611fd991906138b1565b908152604051908190036020018120600101546301ffc9a760e01b825263152a902d60e11b60048301526001600160a01b0316915081906301ffc9a79060240160206040518083038186803b15801561203157600080fd5b505afa158015612045573d6000803e3d6000fd5b505050506040513d601f19601f820116820180604052508101906120699190613631565b8015612096575060048460405161208091906138b1565b9081526020016040518091039020600901546001145b156120ab576120a68484846122ab565b6120b6565b6120b68484846122d5565b50505050565b60005b6007826040516120cf91906138b1565b90815260405190819003602001902054811015611481576007826040516120f691906138b1565b9081526020016040518091039020818154811061212357634e487b7160e01b600052603260045260246000fd5b9060005260206000209060030201600201546001146122995760048260405161214c91906138b1565b908152604051908190036020018120600801546001600160a01b03169063a9059cbb9060079061217d9086906138b1565b908152602001604051809103902083815481106121aa57634e487b7160e01b600052603260045260246000fd5b60009182526020909120600390910201546040516001600160a01b03909116906007906121d89087906138b1565b9081526020016040518091039020848154811061220557634e487b7160e01b600052603260045260246000fd5b60009182526020909120600160039092020101546040516001600160e01b031960e085901b1681526001600160a01b0390921660048301526024820152604401602060405180830381600087803b15801561225f57600080fd5b505af1158015612273573d6000803e3d6000fd5b505050506040513d601f19601f820116820180604052508101906122979190613631565b505b806122a381613e05565b9150506120bf565b81600114156122c2576122bd83612a1e565b505050565b81600214156122bd576122bd8382612e15565b6000806000806004876040516122eb91906138b1565b9081526040519081900360200190206001908101546001600160a01b0316915086141561251b5760048760405161232291906138b1565b90815260200160405180910390206004015493506000612710600154346123499190613d68565b6123539190613d54565b905061235f8134613d87565b935060048860405161237191906138b1565b908152604051908190036020018120600301546001600160a01b03169085156108fc029086906000818181858888f193505050501580156123b6573d6000803e3d6000fd5b506040805160808101825260048183018181526314dbdb1960e21b606084015282526002602083015291519091906123ef908b906138b1565b9081526020016040518091039020600a01600082015181600001908051906020019061241c929190613432565b50602091909101516001909101556003546040516001600160a01b039091169082156108fc029083906000818181858888f19350505050158015612464573d6000803e3d6000fd5b50816001600160a01b03166342842e0e60048a60405161248491906138b1565b908152604051908190036020018120600301546001600160a01b03169033906004906124b1908e906138b1565b908152604051908190036020018120600201546001600160e01b031960e086901b1682526124e39392916004016138cd565b600060405180830381600087803b1580156124fd57600080fd5b505af1158015612511573d6000803e3d6000fd5b50505050506128f9565b85600214156128f95760048760405161253491906138b1565b908152602001604051809103902060040154935060048760405161255891906138b1565b908152604051908190036020018120600801546001546001600160a01b0390911693506000916127109190600790612591908c906138b1565b908152602001604051809103902088815481106125be57634e487b7160e01b600052603260045260246000fd5b9060005260206000209060030201600101546125da9190613d68565b6125e49190613d54565b9050806007896040516125f791906138b1565b9081526020016040518091039020878154811061262457634e487b7160e01b600052603260045260246000fd5b9060005260206000209060030201600101546126409190613d87565b9350826001600160a01b031663a9059cbb60048a60405161266191906138b1565b908152604051908190036020018120600301546001600160e01b031960e084901b1682526001600160a01b0316600482015260248101879052604401602060405180830381600087803b1580156126b757600080fd5b505af11580156126cb573d6000803e3d6000fd5b505050506040513d601f19601f820116820180604052508101906126ef9190613631565b506040805160808101825260048183018181526314dbdb1960e21b60608401528252600260208301529151909190612728908b906138b1565b9081526020016040518091039020600a016000820151816000019080519060200190612755929190613432565b506020919091015160019091015560035460405163a9059cbb60e01b81526001600160a01b039182166004820152602481018390529084169063a9059cbb90604401602060405180830381600087803b1580156127b157600080fd5b505af11580156127c5573d6000803e3d6000fd5b505050506040513d601f19601f820116820180604052508101906127e99190613631565b5060016007896040516127fc91906138b1565b9081526020016040518091039020878154811061282957634e487b7160e01b600052603260045260246000fd5b906000526020600020906003020160020181905550816001600160a01b03166342842e0e60048a60405161285d91906138b1565b908152604051908190036020018120600301546001600160a01b031690339060049061288a908e906138b1565b908152604051908190036020018120600201546001600160e01b031960e086901b1682526128bc9392916004016138cd565b600060405180830381600087803b1580156128d657600080fd5b505af11580156128ea573d6000803e3d6000fd5b505050506128f7886120bc565b505b7f6fbe59ae4d1efe24a3a869068c652b97d698a13961e763519a6c22cb1ca76081873360048a60405161292c91906138b1565b9081526040519081900360200181206003015461295f9392916001600160a01b0390911690899089906000908a906139b4565b60405180910390a16001600160a01b038116600090815260056020526040808220905160019290600490612994908c906138b1565b908152602001604051809103902060020154815260200190815260200160002081905550600060066000836001600160a01b03166001600160a01b03168152602001908152602001600020600060048a6040516129f191906138b1565b90815260200160405180910390206002015481526020019081526020016000208190555050505050505050565b6000806000806000600486604051612a3691906138b1565b908152604051908190036020018120600101546001600160a01b0316915060009081908390632a55205a90600490612a6f908c906138b1565b90815260200160405180910390206002015460048b604051612a9191906138b1565b9081526020016040518091039020600401546040518363ffffffff1660e01b8152600401612ac9929190918252602082015260400190565b604080518083038186803b158015612ae057600080fd5b505afa158015612af4573d6000803e3d6000fd5b505050506040513d601f19601f82011682018060405250810190612b189190613604565b91509150809450600061271060025434612b329190613d68565b612b3c9190613d54565b9050612b488682613d3c565b612b529034613d87565b9650600083905060048a604051612b6991906138b1565b908152604051908190036020018120600301546001600160a01b03169089156108fc02908a906000818181858888f19350505050158015612bae573d6000803e3d6000fd5b506040516001600160a01b0382169088156108fc029089906000818181858888f19350505050158015612be5573d6000803e3d6000fd5b506040805160808101825260048183018181526314dbdb1960e21b60608401528252600260208301529151909190612c1e908d906138b1565b9081526020016040518091039020600a016000820151816000019080519060200190612c4b929190613432565b50602091909101516001909101556003546040516001600160a01b039091169083156108fc029084906000818181858888f19350505050158015612c93573d6000803e3d6000fd5b50846001600160a01b03166342842e0e60048c604051612cb391906138b1565b908152602001604051809103902060030160009054906101000a90046001600160a01b03163360048e604051612ce991906138b1565b908152604051908190036020018120600201546001600160e01b031960e086901b168252612d1b9392916004016138cd565b600060405180830381600087803b158015612d3557600080fd5b505af1158015612d49573d6000803e3d6000fd5b505050507f6fbe59ae4d1efe24a3a869068c652b97d698a13961e763519a6c22cb1ca760818a3360048d604051612d8091906138b1565b90815260405190819003602001812060030154612db29392916001600160a01b03909116908e908e908e908e906139b4565b60405180910390a16001600160a01b03851660009081526006602052604080822090518290600490612de5908f906138b1565b90815260200160405180910390206002015481526020019081526020016000208190555050505050505050505050565b6000806000806000600487604051612e2d91906138b1565b908152604051908190036020018120600101546001600160a01b0316915060009081908390632a55205a90600490612e66908d906138b1565b90815260200160405180910390206002015460078c604051612e8891906138b1565b90815260200160405180910390208b81548110612eb557634e487b7160e01b600052603260045260246000fd5b9060005260206000209060030201600101546040518363ffffffff1660e01b8152600401612eed929190918252602082015260400190565b604080518083038186803b158015612f0457600080fd5b505afa158015612f18573d6000803e3d6000fd5b505050506040513d601f19601f82011682018060405250810190612f3c9190613604565b91509150809450600061271060025460078c604051612f5b91906138b1565b90815260200160405180910390208b81548110612f8857634e487b7160e01b600052603260045260246000fd5b906000526020600020906003020160010154612fa49190613d68565b612fae9190613d54565b9050612fba8682613d3c565b60078b604051612fca91906138b1565b90815260200160405180910390208a81548110612ff757634e487b7160e01b600052603260045260246000fd5b9060005260206000209060030201600101546130139190613d87565b96506000839050856001600160a01b031663a9059cbb60048d60405161303991906138b1565b908152604051908190036020018120600301546001600160e01b031960e084901b1682526001600160a01b03166004820152602481018b9052604401602060405180830381600087803b15801561308f57600080fd5b505af11580156130a3573d6000803e3d6000fd5b505050506040513d601f19601f820116820180604052508101906130c79190613631565b5060405163a9059cbb60e01b81526001600160a01b0382811660048301526024820189905287169063a9059cbb90604401602060405180830381600087803b15801561311257600080fd5b505af1158015613126573d6000803e3d6000fd5b505050506040513d601f19601f8201168201806040525081019061314a9190613631565b506040805160808101825260048183018181526314dbdb1960e21b60608401528252600260208301529151909190613183908e906138b1565b9081526020016040518091039020600a0160008201518160000190805190602001906131b0929190613432565b506020919091015160019091015560035460405163a9059cbb60e01b81526001600160a01b039182166004820152602481018490529087169063a9059cbb90604401602060405180830381600087803b15801561320c57600080fd5b505af1158015613220573d6000803e3d6000fd5b505050506040513d601f19601f820116820180604052508101906132449190613631565b50600160078c60405161325791906138b1565b90815260200160405180910390208b8154811061328457634e487b7160e01b600052603260045260246000fd5b906000526020600020906003020160020181905550846001600160a01b03166342842e0e60048d6040516132b891906138b1565b908152602001604051809103902060030160009054906101000a90046001600160a01b03163360048f6040516132ee91906138b1565b908152604051908190036020018120600201546001600160e01b031960e086901b1682526133209392916004016138cd565b600060405180830381600087803b15801561333a57600080fd5b505af115801561334e573d6000803e3d6000fd5b5050505061335b8b6120bc565b7f6fbe59ae4d1efe24a3a869068c652b97d698a13961e763519a6c22cb1ca760818b3360048e60405161338e91906138b1565b908152604051908190036020018120600301546133c09392916001600160a01b03909116908e908e908e908e906139b4565b60405180910390a1600060066000876001600160a01b03166001600160a01b03168152602001908152602001600020600060048e60405161340191906138b1565b9081526020016040518091039020600201548152602001908152602001600020819055505050505050505050505050565b82805461343e90613dca565b90600052602060002090601f01602090048101928261346057600085556134a6565b82601f1061347957805160ff19168380011785556134a6565b828001600101855582156134a6579182015b828111156134a657825182559160200191906001019061348b565b506134b2929150613545565b5090565b6040518061016001604052806060815260200160006001600160a01b031681526020016000815260200160006001600160a01b031681526020016000815260200160008152602001600081526020016000815260200160006001600160a01b0316815260200160008152602001613540604051806040016040528060608152602001600081525090565b905290565b5b808211156134b25760008155600101613546565b600082601f83011261356a578081fd5b813567ffffffffffffffff8082111561358557613585613e60565b604051601f8301601f19908116603f011681019082821181831017156135ad576135ad613e60565b816040528381528660208588010111156135c5578485fd5b8360208701602083013792830160200193909352509392505050565b6000602082840312156135f2578081fd5b81516135fd81613e76565b9392505050565b60008060408385031215613616578081fd5b825161362181613e76565b6020939093015192949293505050565b600060208284031215613642578081fd5b815180151581146135fd578182fd5b600060208284031215613662578081fd5b813567ffffffffffffffff811115613678578182fd5b6136848482850161355a565b949350505050565b600080600080600080600060e0888a0312156136a6578283fd5b873567ffffffffffffffff8111156136bc578384fd5b6136c88a828b0161355a565b97505060208801356136d981613e76565b955060408801356136e981613e76565b9450606088013593506080880135925060a088013561370781613e76565b8092505060c0880135905092959891949750929550565b600080600080600080600080610100898b03121561373a578081fd5b883567ffffffffffffffff811115613750578182fd5b61375c8b828c0161355a565b985050602089013561376d81613e76565b9650604089013561377d81613e76565b9550606089013594506080890135935060a0890135925060c08901356137a281613e76565b8092505060e089013590509295985092959890939650565b600080604083850312156137cc578182fd5b823567ffffffffffffffff8111156137e2578283fd5b6137ee8582860161355a565b95602094909401359450505050565b60006020828403121561380e578081fd5b5035919050565b600060208284031215613826578081fd5b5051919050565b6000806040838503121561383f578182fd5b82359150602083013561385181613e76565b809150509250929050565b60008151808452613874816020860160208601613d9e565b601f01601f19169290920160200192915050565b600081516040845261389d604085018261385c565b602093840151949093019390935250919050565b600082516138c3818460208701613d9e565b9190910192915050565b6001600160a01b039384168152919092166020820152604081019190915260600190565b602080825282518282018190526000919060409081850190868401855b8281101561394657815180516001600160a01b031685528681015187860152850151858501526060909301929085019060010161390e565b5091979650505050505050565b606081526000613966606083018561385c565b6001600160a01b0393909316602083810191909152828403604093840152601884527f416e20706f7374696e67207761732063616e63656c6c65640000000000000000908401525001919050565b60006101008083526139c88184018b61385c565b6001600160a01b038a811660208601528981166040860152606085018990526080850188905260a08501879052851660c085015283810360e08501529050613a4881602581527f416e204e46542066726f6d206d61726b6574706c61636520686173206265656e602082015264081cdbdb1960da1b604082015260600190565b9a9950505050505050505050565b608081526000613a69608083018661385c565b60018060a01b03851660208401528360408401528281036060840152601d81527f416e204e465420776173206c697374656420666f722041756374696f6e000000602082015260408101915050949350505050565b608081526000613ad1608083018661385c565b60018060a01b03851660208401528360408401528281036060840152601a81527f416e204e465420776173206c697374656420666f722053616c65000000000000602082015260408101915050949350505050565b608081526000613b39608083018761385c565b6001600160a01b03959095166020830152506040810192909252606090910152919050565b602080825260409082018190527f706f7374696e67207468652073616d65206974656d207768696c6520616e6f74908201527f686572206f6e6520697320616374697665206973206e6f7420616c6c6f776564606082015260800190565b60208082526033908201527f436f6e7472616374206973206e6f7420617070726f76656420746f2074726164604082015272329037b7103132b430b6331037b3103ab9b2b960691b606082015260800190565b60208082526032908201527f506f7374696e67206f66204e4654206e6f74206f776e6572206f662061646472604082015271195cdcc81a5cc81b9bdd08185b1b1bddd95960721b606082015260800190565b6020815260008251610160806020850152613c8061018085018361385c565b91506020850151613c9c60408601826001600160a01b03169052565b50604085015160608501526060850151613cc160808601826001600160a01b03169052565b50608085015160a085015260a085015160c085015260c085015160e085015260e0850151610100818187015280870151915050610120613d0b818701836001600160a01b03169052565b86015161014086810191909152860151858403601f1901838701529050613d328382613888565b9695505050505050565b60008219821115613d4f57613d4f613e34565b500190565b600082613d6357613d63613e4a565b500490565b6000816000190483118215151615613d8257613d82613e34565b500290565b600082821015613d9957613d99613e34565b500390565b60005b83811015613db9578181015183820152602001613da1565b838111156120b65750506000910152565b600181811c90821680613dde57607f821691505b60208210811415613dff57634e487b7160e01b600052602260045260246000fd5b50919050565b6000600019821415613e1957613e19613e34565b5060010190565b600082613e2f57613e2f613e4a565b500690565b634e487b7160e01b600052601160045260246000fd5b634e487b7160e01b600052601260045260246000fd5b634e487b7160e01b600052604160045260246000fd5b6001600160a01b0381168114611dcb57600080fdfea2646970667358221220214b2641abf942aa633b42f575626be30f2693757b62756463eda5c366bf12ef64736f6c63430008040033",
  "linkReferences": {},
  "deployedLinkReferences": {}
}