{
  "_format": "hh-sol-artifact-1",
  "contractName": "LikhaNFTMarketplace",
  "sourceName": "contracts/LikhaMarketplace.sol",
  "abi": [
    {
      "inputs": [],
      "stateMutability": "nonpayable",
      "type": "constructor"
    },
    {
      "anonymous": false,
      "inputs": [
        {
          "indexed": false,
          "internalType": "string",
          "name": "dbID",
          "type": "string"
        },
        {
          "indexed": false,
          "internalType": "address",
          "name": "seller",
          "type": "address"
        },
        {
          "indexed": false,
          "internalType": "string",
          "name": "message",
          "type": "string"
        }
      ],
      "name": "ItemCancelEvent",
      "type": "event"
    },
    {
      "anonymous": false,
      "inputs": [
        {
          "indexed": false,
          "internalType": "string",
          "name": "dbID",
          "type": "string"
        },
        {
          "indexed": false,
          "internalType": "address",
          "name": "seller",
          "type": "address"
        },
        {
          "indexed": false,
          "internalType": "uint256",
          "name": "price",
          "type": "uint256"
        },
        {
          "indexed": false,
          "internalType": "string",
          "name": "message",
          "type": "string"
        }
      ],
      "name": "ItemPostEvent",
      "type": "event"
    },
    {
      "anonymous": false,
      "inputs": [
        {
          "indexed": false,
          "internalType": "string",
          "name": "dbID",
          "type": "string"
        },
        {
          "indexed": false,
          "internalType": "address",
          "name": "bidder",
          "type": "address"
        },
        {
          "indexed": false,
          "internalType": "uint256",
          "name": "bidAmount",
          "type": "uint256"
        },
        {
          "indexed": false,
          "internalType": "uint256",
          "name": "bidID",
          "type": "uint256"
        }
      ],
      "name": "NFTBidEvent",
      "type": "event"
    },
    {
      "anonymous": false,
      "inputs": [
        {
          "indexed": false,
          "internalType": "string",
          "name": "dbID",
          "type": "string"
        },
        {
          "indexed": false,
          "internalType": "address",
          "name": "buyer",
          "type": "address"
        },
        {
          "indexed": false,
          "internalType": "address",
          "name": "seller",
          "type": "address"
        },
        {
          "indexed": false,
          "internalType": "uint256",
          "name": "price",
          "type": "uint256"
        },
        {
          "indexed": false,
          "internalType": "uint256",
          "name": "credited",
          "type": "uint256"
        },
        {
          "indexed": false,
          "internalType": "uint256",
          "name": "royalty",
          "type": "uint256"
        },
        {
          "indexed": false,
          "internalType": "address",
          "name": "ERC20Token",
          "type": "address"
        },
        {
          "indexed": false,
          "internalType": "string",
          "name": "message",
          "type": "string"
        }
      ],
      "name": "NFTSaleEvent",
      "type": "event"
    },
    {
      "inputs": [],
      "name": "burnContract",
      "outputs": [],
      "stateMutability": "nonpayable",
      "type": "function"
    },
    {
      "inputs": [
        {
          "internalType": "string",
          "name": "dbID",
          "type": "string"
        }
      ],
      "name": "buyNFT",
      "outputs": [],
      "stateMutability": "payable",
      "type": "function"
    },
    {
      "inputs": [
        {
          "internalType": "string",
          "name": "dbID",
          "type": "string"
        }
      ],
      "name": "cancelPosting",
      "outputs": [],
      "stateMutability": "nonpayable",
      "type": "function"
    },
    {
      "inputs": [
        {
          "internalType": "string",
          "name": "dbID",
          "type": "string"
        }
      ],
      "name": "endAuction",
      "outputs": [],
      "stateMutability": "nonpayable",
      "type": "function"
    },
    {
      "inputs": [
        {
          "internalType": "string",
          "name": "dbID",
          "type": "string"
        }
      ],
      "name": "fetchBidItems",
      "outputs": [
        {
          "components": [
            {
              "internalType": "address",
              "name": "bidder",
              "type": "address"
            },
            {
              "internalType": "uint256",
              "name": "bidAmount",
              "type": "uint256"
            },
            {
              "internalType": "uint256",
              "name": "processed",
              "type": "uint256"
            }
          ],
          "internalType": "struct LikhaNFTMarketplace.BidItem[]",
          "name": "",
          "type": "tuple[]"
        }
      ],
      "stateMutability": "view",
      "type": "function"
    },
    {
      "inputs": [
        {
          "internalType": "string",
          "name": "dbID",
          "type": "string"
        }
      ],
      "name": "fetchPostingStatus",
      "outputs": [
        {
          "components": [
            {
              "internalType": "string",
              "name": "dbID",
              "type": "string"
            },
            {
              "internalType": "address",
              "name": "NFTContractAddress",
              "type": "address"
            },
            {
              "internalType": "uint256",
              "name": "tokenId",
              "type": "uint256"
            },
            {
              "internalType": "address payable",
              "name": "seller",
              "type": "address"
            },
            {
              "internalType": "uint256",
              "name": "price",
              "type": "uint256"
            },
            {
              "internalType": "uint256",
              "name": "biddable",
              "type": "uint256"
            },
            {
              "internalType": "uint256",
              "name": "bidMinimum",
              "type": "uint256"
            },
            {
              "internalType": "uint256",
              "name": "timeOfAuctionEnd",
              "type": "uint256"
            },
            {
              "internalType": "address",
              "name": "ERC20Preferred",
              "type": "address"
            },
            {
              "internalType": "uint256",
              "name": "NFTFirstPurchaseDone",
              "type": "uint256"
            },
            {
              "components": [
                {
                  "internalType": "string",
                  "name": "value",
                  "type": "string"
                },
                {
                  "internalType": "uint256",
                  "name": "valueID",
                  "type": "uint256"
                }
              ],
              "internalType": "struct LikhaNFTMarketplace.MarketSaleStatus",
              "name": "status",
              "type": "tuple"
            }
          ],
          "internalType": "struct LikhaNFTMarketplace.MarketItem",
          "name": "",
          "type": "tuple"
        }
      ],
      "stateMutability": "view",
      "type": "function"
    },
    {
      "inputs": [],
      "name": "getPlatformFee1stPurchase",
      "outputs": [
        {
          "internalType": "uint256",
          "name": "",
          "type": "uint256"
        }
      ],
      "stateMutability": "view",
      "type": "function"
    },
    {
      "inputs": [],
      "name": "getPlatformFee2ndPurchase",
      "outputs": [
        {
          "internalType": "uint256",
          "name": "",
          "type": "uint256"
        }
      ],
      "stateMutability": "view",
      "type": "function"
    },
    {
      "inputs": [
        {
          "internalType": "uint256",
          "name": "tokenID",
          "type": "uint256"
        },
        {
          "internalType": "address",
          "name": "nftContract",
          "type": "address"
        }
      ],
      "name": "isItemLocked",
      "outputs": [
        {
          "internalType": "uint256",
          "name": "",
          "type": "uint256"
        }
      ],
      "stateMutability": "view",
      "type": "function"
    },
    {
      "inputs": [
        {
          "internalType": "string",
          "name": "dbID",
          "type": "string"
        },
        {
          "internalType": "uint256",
          "name": "bidID",
          "type": "uint256"
        }
      ],
      "name": "nftBidAccept",
      "outputs": [],
      "stateMutability": "nonpayable",
      "type": "function"
    },
    {
      "inputs": [
        {
          "internalType": "string",
          "name": "dbID",
          "type": "string"
        },
        {
          "internalType": "uint256",
          "name": "amount",
          "type": "uint256"
        }
      ],
      "name": "nftBidPlacing",
      "outputs": [],
      "stateMutability": "nonpayable",
      "type": "function"
    },
    {
      "inputs": [
        {
          "internalType": "string",
          "name": "dbID",
          "type": "string"
        },
        {
          "internalType": "address",
          "name": "NFTAddress",
          "type": "address"
        },
        {
          "internalType": "address",
          "name": "seller",
          "type": "address"
        },
        {
          "internalType": "uint256",
          "name": "NFTTokenID",
          "type": "uint256"
        },
        {
          "internalType": "uint256",
          "name": "timeOfAuctionEnd",
          "type": "uint256"
        },
        {
          "internalType": "address",
          "name": "ERC20Preferred",
          "type": "address"
        },
        {
          "internalType": "uint256",
          "name": "bidMinumum",
          "type": "uint256"
        }
      ],
      "name": "nftBidPosting",
      "outputs": [],
      "stateMutability": "nonpayable",
      "type": "function"
    },
    {
      "inputs": [
        {
          "internalType": "string",
          "name": "dbID",
          "type": "string"
        },
        {
          "internalType": "address",
          "name": "NFTAddress",
          "type": "address"
        },
        {
          "internalType": "address",
          "name": "seller",
          "type": "address"
        },
        {
          "internalType": "uint256",
          "name": "NFTTokenID",
          "type": "uint256"
        },
        {
          "internalType": "uint256",
          "name": "price",
          "type": "uint256"
        },
        {
          "internalType": "uint256",
          "name": "biddable",
          "type": "uint256"
        },
        {
          "internalType": "address",
          "name": "ERC20Preferred",
          "type": "address"
        },
        {
          "internalType": "uint256",
          "name": "bidMinimum",
          "type": "uint256"
        }
      ],
      "name": "nftSellPosting",
      "outputs": [],
      "stateMutability": "nonpayable",
      "type": "function"
    },
    {
      "inputs": [
        {
          "internalType": "uint256",
          "name": "newPlatformFee",
          "type": "uint256"
        }
      ],
      "name": "setPlatformFee1stPurchase",
      "outputs": [],
      "stateMutability": "nonpayable",
      "type": "function"
    },
    {
      "inputs": [
        {
          "internalType": "uint256",
          "name": "newPlatformFee",
          "type": "uint256"
        }
      ],
      "name": "setPlatformFee2ndPurchase",
      "outputs": [],
      "stateMutability": "nonpayable",
      "type": "function"
    }
  ],
  "bytecode": "0x608060405234801561001057600080fd5b5060016000819055600380546001600160a01b031916331790556103e8905560fa600255613f1f806100436000396000f3fe6080604052600436106100e85760003560e01c80638f3a34231161008a578063d275ff7811610059578063d275ff7814610255578063d5b8333514610295578063e4f05185146102b5578063f1171730146102d557600080fd5b80638f3a3423146101bb578063915b0741146101e8578063a0ac20ae14610215578063ce2ba9bf1461023557600080fd5b806368cc74f6116100c657806368cc74f61461014857806374a493c3146101685780637cc4330a146101885780638d012300146101a857600080fd5b80631c0973a4146100ed5780634fa157da146101045780635ea4e8d914610124575b600080fd5b3480156100f957600080fd5b506101026102ea565b005b34801561011057600080fd5b5061010261011f36600461377c565b61030f565b34801561013057600080fd5b506002545b6040519081526020015b60405180910390f35b34801561015457600080fd5b506101026101633660046136ea565b610713565b34801561017457600080fd5b50610102610183366004613818565b610a95565b34801561019457600080fd5b506101026101a3366004613818565b611010565b6101026101b63660046136af565b611457565b3480156101c757600080fd5b506101db6101d63660046136af565b611999565b60405161013f9190613cbf565b3480156101f457600080fd5b506102086102033660046136af565b611b85565b60405161013f919061394f565b34801561022157600080fd5b5061010261023036600461385b565b611c25565b34801561024157600080fd5b506101026102503660046136af565b611c41565b34801561026157600080fd5b5061013561027036600461388b565b6001600160a01b03166000908152600660209081526040808320938352929052205490565b3480156102a157600080fd5b506101026102b036600461385b565b611da0565b3480156102c157600080fd5b506101026102d03660046136af565b611dbc565b3480156102e157600080fd5b50600154610135565b6003546001600160a01b0316331461030157600080fd5b6003546001600160a01b0316ff5b6040516331a9108f60e11b8152600481018690526001600160a01b038088169190891690636352211e9060240160206040518083038186803b15801561035457600080fd5b505afa158015610368573d6000803e3d6000fd5b505050506040513d601f19601f8201168201806040525081019061038c919061363f565b6001600160a01b0316146103bb5760405162461bcd60e51b81526004016103b290613c6d565b60405180910390fd5b60405163e985e9c560e01b81526001600160a01b03878116600483015230602483015288169063e985e9c59060440160206040518083038186803b15801561040257600080fd5b505afa158015610416573d6000803e3d6000fd5b505050506040513d601f19601f8201168201806040525081019061043a919061368f565b6104565760405162461bcd60e51b81526004016103b290613c1a565b610461606485613e7e565b156104d45760405162461bcd60e51b815260206004820152603760248201527f70726f63657373696e67206f66207072696365206e6f7420646976697369626c60448201527f6520627920313030206973206e6f7420616c6c6f77656400000000000000000060648201526084016103b2565b6001600160a01b0387166000908152600660209081526040808320888452909152902054156105155760405162461bcd60e51b81526004016103b290613bbc565b6001600160a01b0380881660008181526006602090815260408083208a84528252808320600190558051610160810182528d81528083018590528082018b90528b861660608083019190915260808083018c905260a083018b905260c0830186905260e08301899052968916610100830152948452600583528184208b855283528184205461012082015281519586018252600886830190815267466f722053616c6560c01b958701959095529385529084019190915261014082019290925290516004906105e5908b9061390f565b9081526020016040518091039020600082015181600001908051906020019061060f929190613490565b506020828101516001830180546001600160a01b039283166001600160a01b0319918216179091556040850151600285015560608501516003850180549184169183169190911790556080850151600485015560a0850151600585015560c0850151600685015560e085015160078501556101008501516008850180549190931691161790556101208301516009830155610140830151805180519192600a8501926106be9284920190613490565b506020820151816001015550509050507f6983b9ebaf6ed72504ba702cdd9389c357b4cfe946bb53b135265583ef5d5ab588878660405161070193929190613b1c565b60405180910390a15050505050505050565b6040516331a9108f60e11b8152600481018590526001600160a01b038087169190881690636352211e9060240160206040518083038186803b15801561075857600080fd5b505afa15801561076c573d6000803e3d6000fd5b505050506040513d601f19601f82011682018060405250810190610790919061363f565b6001600160a01b0316146107b65760405162461bcd60e51b81526004016103b290613c6d565b60405163e985e9c560e01b81526001600160a01b03868116600483015230602483015287169063e985e9c59060440160206040518083038186803b1580156107fd57600080fd5b505afa158015610811573d6000803e3d6000fd5b505050506040513d601f19601f82011682018060405250810190610835919061368f565b6108515760405162461bcd60e51b81526004016103b290613c1a565b6001600160a01b0386166000908152600660209081526040808320878452909152902054156108925760405162461bcd60e51b81526004016103b290613bbc565b6001600160a01b03808716600081815260066020908152604080832089845282528083206001908190558151610160810183528d81528084018690528083018b90528b8716606080830191909152608080830187905260a0830184905260c083018a905260e083018c9052978a16610100830152958552600584528285208b86528452938290205461012085015281519586018252600b8683019081526a2337b91030bab1ba34b7b760a91b958701959095529385529084019290925261014081019290925251600490610967908a9061390f565b90815260200160405180910390206000820151816000019080519060200190610991929190613490565b506020828101516001830180546001600160a01b039283166001600160a01b0319918216179091556040850151600285015560608501516003850180549184169183169190911790556080850151600485015560a0850151600585015560c0850151600685015560e085015160078501556101008501516008850180549190931691161790556101208301516009830155610140830151805180519192600a850192610a409284920190613490565b506020820151816001015550509050507f6983b9ebaf6ed72504ba702cdd9389c357b4cfe946bb53b135265583ef5d5ab587866000604051610a8493929190613ab4565b60405180910390a150505050505050565b336001600160a01b0316600483604051610aaf919061390f565b908152604051908190036020019020600301546001600160a01b03161415610b255760405162461bcd60e51b8152602060048201526024808201527f42696464657220616e642073656c6c65722063616e6e6f74206265207468652060448201526373616d6560e01b60648201526084016103b2565b80600483604051610b36919061390f565b90815260405190819003602001812060080154636eb1769f60e11b82523360048301523060248301526001600160a01b03169063dd62ed3e9060440160206040518083038186803b158015610b8a57600080fd5b505afa158015610b9e573d6000803e3d6000fd5b505050506040513d601f19601f82011682018060405250810190610bc29190613873565b1015610c215760405162461bcd60e51b815260206004820152602860248201527f417070726f76656420616c6c6f77616e636520616d6f756e7420646f6573206e6044820152670dee840dac2e8c6d60c31b60648201526084016103b2565b80600483604051610c32919061390f565b908152604051908190036020018120600801546370a0823160e01b82523360048301526001600160a01b0316906370a082319060240160206040518083038186803b158015610c8057600080fd5b505afa158015610c94573d6000803e3d6000fd5b505050506040513d601f19601f82011682018060405250810190610cb89190613873565b1015610d065760405162461bcd60e51b815260206004820152601e60248201527f417070726f76656420616d6f756e7420646f6573206e6f74206d61746368000060448201526064016103b2565b6002600483604051610d18919061390f565b908152604051908190036020019020600b015410610d785760405162461bcd60e51b815260206004820152601b60248201527f4974656d206973206e6f206c6f6e67657220617661696c61626c65000000000060448201526064016103b2565b6000600783604051610d8a919061390f565b908152604051908190036020019020541115610e805780600783604051610db1919061390f565b90815260200160405180910390206001600785604051610dd1919061390f565b90815260405190819003602001902054610deb9190613de5565b81548110610e0957634e487b7160e01b600052603260045260246000fd5b9060005260206000209060030201600101541015610e805760405162461bcd60e51b815260206004820152602e60248201527f626964206973206c6f776572206f7220657175616c207468616e20637572726560448201526d1b9d081a1a59da195cdd08189a5960921b60648201526084016103b2565b600482604051610e90919061390f565b908152604051908190036020018120600801546323b872dd60e01b82526001600160a01b0316906323b872dd90610ecf9033903090869060040161392b565b602060405180830381600087803b158015610ee957600080fd5b505af1158015610efd573d6000803e3d6000fd5b505050506040513d601f19601f82011682018060405250810190610f21919061368f565b50600782604051610f32919061390f565b9081526040805160209281900383018120606082018352338083528483018681526000848601818152845460018082018755958352979091209451600390970290940180546001600160a01b0319166001600160a01b039097169690961786555185830155915160029094019390935590517f0f6090d8cacfcb414d20fc390069d516a321b2460f9159b398fa14ba464dc9c292859291859190600790610fda90869061390f565b90815260405190819003602001902054610ff49190613de5565b6040516110049493929190613b84565b60405180910390a15050565b80600783604051611021919061390f565b908152604051908190036020019020541161107e5760405162461bcd60e51b815260206004820152601a60248201527f62696420494420696e646578206f7574206f6620626f756e647300000000000060448201526064016103b2565b60078260405161108e919061390f565b908152602001604051809103902081815481106110bb57634e487b7160e01b600052603260045260246000fd5b9060005260206000209060030201600101546004836040516110dd919061390f565b908152604051908190036020018120600801546001600160a01b03169063dd62ed3e9060079061110e90879061390f565b9081526020016040518091039020848154811061113b57634e487b7160e01b600052603260045260246000fd5b600091825260209091206003909102015460405160e083901b6001600160e01b03191681526001600160a01b03909116600482015230602482015260440160206040518083038186803b15801561119157600080fd5b505afa1580156111a5573d6000803e3d6000fd5b505050506040513d601f19601f820116820180604052508101906111c99190613873565b10156112315760405162461bcd60e51b815260206004820152603160248201527f417070726f76656420616c6c6f77616e636520616d6f756e7420646f6573206e60448201527037ba1036b0ba31b41037b710313abcb2b960791b60648201526084016103b2565b600782604051611241919061390f565b9081526020016040518091039020818154811061126e57634e487b7160e01b600052603260045260246000fd5b906000526020600020906003020160010154600483604051611290919061390f565b908152604051908190036020018120600801546001600160a01b0316906370a08231906007906112c190879061390f565b908152602001604051809103902084815481106112ee57634e487b7160e01b600052603260045260246000fd5b600091825260209091206003909102015460405160e083901b6001600160e01b03191681526001600160a01b03909116600482015260240160206040518083038186803b15801561133e57600080fd5b505afa158015611352573d6000803e3d6000fd5b505050506040513d601f19601f820116820180604052508101906113769190613873565b10156113c45760405162461bcd60e51b815260206004820152601e60248201527f417070726f76656420616d6f756e7420646f6573206e6f74206d61746368000060448201526064016103b2565b336001600160a01b03166004836040516113de919061390f565b908152604051908190036020019020600301546001600160a01b0316146114475760405162461bcd60e51b815260206004820152601a60248201527f4f6e6c79204f776e65722063616e20616363657074206269647300000000000060448201526064016103b2565b61145382600283612025565b5050565b600260005414156114aa5760405162461bcd60e51b815260206004820152601f60248201527f5265656e7472616e637947756172643a207265656e7472616e742063616c6c0060448201526064016103b2565b600260009081556040516004906114c290849061390f565b908152602001604051809103902060040154905060006004836040516114e8919061390f565b9081526020016040518091039020600201549050600060048460405161150e919061390f565b908152604051908190036020018120600301546001600160a01b0316915060009060049061153d90879061390f565b908152604051908190036020018120600101546001600160a01b0316915060049061156990879061390f565b908152602001604051809103902060040154600014156115e35760405162461bcd60e51b815260206004820152602f60248201527f4974656d20697320666f722061756374696f6e2e20506c6561736520706c616360448201526e19481848189a59081a5b9cdd195859608a1b60648201526084016103b2565b8334146116715760405162461bcd60e51b815260206004820152605060248201527f41736b696e6720707269636520617265206e6f74207468652073616d6520776960448201527f74682074686520706179696e672070726963652e20506c65617365207375626d60648201526f697420612076616c69642076616c756560801b608482015260a4016103b2565b336001600160a01b03831614156116ca5760405162461bcd60e51b815260206004820152601e60248201527f627579657220616e642073656c6c657220617265207468652073616d652e000060448201526064016103b2565b6116d5606434613e7e565b156117545760405162461bcd60e51b815260206004820152604360248201527f70726f63657373696e67206f66207472616e73616374696f6e2076616c75652060448201527f6e6f7420646976697369626c6520627920313030206973206e6f7420616c6c6f6064820152621dd95960ea1b608482015260a4016103b2565b6040516331a9108f60e11b8152600481018490526001600160a01b038084169190831690636352211e9060240160206040518083038186803b15801561179957600080fd5b505afa1580156117ad573d6000803e3d6000fd5b505050506040513d601f19601f820116820180604052508101906117d1919061363f565b6001600160a01b0316146118275760405162461bcd60e51b815260206004820152601d60248201527f53656c6c6572206e6f206c6f6e676572206f776e7320746865204e465400000060448201526064016103b2565b60405163e985e9c560e01b81526001600160a01b03838116600483015230602483015282169063e985e9c59060440160206040518083038186803b15801561186e57600080fd5b505afa158015611882573d6000803e3d6000fd5b505050506040513d601f19601f820116820180604052508101906118a6919061368f565b61190e5760405162461bcd60e51b815260206004820152603360248201527f436f6e74726163742077617320646973616c6c6f77656420746f2074726164656044820152721037b71039b2b63632b913b9903132b430b63360691b60648201526084016103b2565b6002600486604051611920919061390f565b908152604051908190036020019020600b0154106119805760405162461bcd60e51b815260206004820152601b60248201527f4974656d206973206e6f206c6f6e67657220617661696c61626c65000000000060448201526064016103b2565b61198d8560016000612025565b50506001600055505050565b6119a1613514565b6004826040516119b1919061390f565b9081526020016040518091039020604051806101600160405290816000820180546119db90613e28565b80601f0160208091040260200160405190810160405280929190818152602001828054611a0790613e28565b8015611a545780601f10611a2957610100808354040283529160200191611a54565b820191906000526020600020905b815481529060010190602001808311611a3757829003601f168201915b505050918352505060018201546001600160a01b039081166020830152600283015460408084019190915260038401548216606084015260048401546080840152600584015460a0840152600684015460c0840152600784015460e0840152600884015490911661010083015260098301546101208301528051808201909152600a830180546101409093019282908290611aee90613e28565b80601f0160208091040260200160405190810160405280929190818152602001828054611b1a90613e28565b8015611b675780601f10611b3c57610100808354040283529160200191611b67565b820191906000526020600020905b815481529060010190602001808311611b4a57829003601f168201915b50505050508152602001600182015481525050815250509050919050565b6060600782604051611b97919061390f565b9081526020016040518091039020805480602002602001604051908101604052809291908181526020016000905b82821015611c1a576000848152602090819020604080516060810182526003860290920180546001600160a01b0316835260018082015484860152600290910154918301919091529083529092019101611bc5565b505050509050919050565b6003546001600160a01b03163314611c3c57600080fd5b600155565b6003546001600160a01b03163314611c5857600080fd5b600481604051611c68919061390f565b90815260200160405180910390206007015460001415611cda5760405162461bcd60e51b815260206004820152602760248201527f4974656d20706f73746564206973206e6f74207375626a656374656420746f2060448201526630bab1ba34b7b760c91b60648201526084016103b2565b42600482604051611ceb919061390f565b9081526020016040518091039020600701541015611d665760405162461bcd60e51b815260206004820152603260248201527f43757272656e742074696d6520646f6573206e6f7420796574207061737420646044820152713ab2903230ba329037b31030bab1ba34b7b760711b60648201526084016103b2565b611d9d8160026001600785604051611d7e919061390f565b90815260405190819003602001902054611d989190613de5565b612025565b50565b6003546001600160a01b03163314611db757600080fd5b600255565b6000600482604051611dce919061390f565b908152604051908190036020018120600301546001600160a01b03169150600090600490611dfd90859061390f565b908152604051908190036020018120600101546001600160a01b03169150600090600490611e2c90869061390f565b908152604051908190036020019020600201549050336001600160a01b03841614611e995760405162461bcd60e51b815260206004820152601c60248201527f54582073656e646572206973206e6f74207468652073656c6c65722e0000000060448201526064016103b2565b6002600485604051611eab919061390f565b908152604051908190036020019020600b015410611f1b5760405162461bcd60e51b815260206004820152602760248201527f43616e6e6f742063616e63656c206974656d73207468617420617265206e6f746044820152662061637469766560c81b60648201526084016103b2565b6040805160808101825260098183019081526810d85b98d95b1b195960ba1b60608301528152600360208201529051600490611f5890879061390f565b9081526020016040518091039020600a016000820151816000019080519060200190611f85929190613490565b506020918201516001909101556001600160a01b03831660009081526006825260408082208483529092528181205551600490611fc390869061390f565b90815260200160405180910390206005015460011415611fe657611fe68461211a565b7f1389084b161df5d88502b87d968c48ad054ec739e212e682bfed0a76d228ea2c84846040516120179291906139b1565b60405180910390a150505050565b6000600484604051612037919061390f565b908152604051908190036020018120600101546301ffc9a760e01b825263152a902d60e11b60048301526001600160a01b0316915081906301ffc9a79060240160206040518083038186803b15801561208f57600080fd5b505afa1580156120a3573d6000803e3d6000fd5b505050506040513d601f19601f820116820180604052508101906120c7919061368f565b80156120f457506004846040516120de919061390f565b9081526020016040518091039020600901546001145b1561210957612104848484612309565b612114565b612114848484612333565b50505050565b60005b60078260405161212d919061390f565b9081526040519081900360200190205481101561145357600782604051612154919061390f565b9081526020016040518091039020818154811061218157634e487b7160e01b600052603260045260246000fd5b9060005260206000209060030201600201546001146122f7576004826040516121aa919061390f565b908152604051908190036020018120600801546001600160a01b03169063a9059cbb906007906121db90869061390f565b9081526020016040518091039020838154811061220857634e487b7160e01b600052603260045260246000fd5b60009182526020909120600390910201546040516001600160a01b039091169060079061223690879061390f565b9081526020016040518091039020848154811061226357634e487b7160e01b600052603260045260246000fd5b60009182526020909120600160039092020101546040516001600160e01b031960e085901b1681526001600160a01b0390921660048301526024820152604401602060405180830381600087803b1580156122bd57600080fd5b505af11580156122d1573d6000803e3d6000fd5b505050506040513d601f19601f820116820180604052508101906122f5919061368f565b505b8061230181613e63565b91505061211d565b81600114156123205761231b83612a7c565b505050565b816002141561231b5761231b8382612e73565b600080600080600487604051612349919061390f565b9081526040519081900360200190206001908101546001600160a01b0316915086141561257957600487604051612380919061390f565b90815260200160405180910390206004015493506000612710600154346123a79190613dc6565b6123b19190613db2565b90506123bd8134613de5565b93506004886040516123cf919061390f565b908152604051908190036020018120600301546001600160a01b03169085156108fc029086906000818181858888f19350505050158015612414573d6000803e3d6000fd5b506040805160808101825260048183018181526314dbdb1960e21b6060840152825260026020830152915190919061244d908b9061390f565b9081526020016040518091039020600a01600082015181600001908051906020019061247a929190613490565b50602091909101516001909101556003546040516001600160a01b039091169082156108fc029083906000818181858888f193505050501580156124c2573d6000803e3d6000fd5b50816001600160a01b03166342842e0e60048a6040516124e2919061390f565b908152604051908190036020018120600301546001600160a01b031690339060049061250f908e9061390f565b908152604051908190036020018120600201546001600160e01b031960e086901b16825261254193929160040161392b565b600060405180830381600087803b15801561255b57600080fd5b505af115801561256f573d6000803e3d6000fd5b5050505050612957565b856002141561295757600487604051612592919061390f565b90815260200160405180910390206004015493506004876040516125b6919061390f565b908152604051908190036020018120600801546001546001600160a01b03909116935060009161271091906007906125ef908c9061390f565b9081526020016040518091039020888154811061261c57634e487b7160e01b600052603260045260246000fd5b9060005260206000209060030201600101546126389190613dc6565b6126429190613db2565b905080600789604051612655919061390f565b9081526020016040518091039020878154811061268257634e487b7160e01b600052603260045260246000fd5b90600052602060002090600302016001015461269e9190613de5565b9350826001600160a01b031663a9059cbb60048a6040516126bf919061390f565b908152604051908190036020018120600301546001600160e01b031960e084901b1682526001600160a01b0316600482015260248101879052604401602060405180830381600087803b15801561271557600080fd5b505af1158015612729573d6000803e3d6000fd5b505050506040513d601f19601f8201168201806040525081019061274d919061368f565b506040805160808101825260048183018181526314dbdb1960e21b60608401528252600260208301529151909190612786908b9061390f565b9081526020016040518091039020600a0160008201518160000190805190602001906127b3929190613490565b506020919091015160019091015560035460405163a9059cbb60e01b81526001600160a01b039182166004820152602481018390529084169063a9059cbb90604401602060405180830381600087803b15801561280f57600080fd5b505af1158015612823573d6000803e3d6000fd5b505050506040513d601f19601f82011682018060405250810190612847919061368f565b50600160078960405161285a919061390f565b9081526020016040518091039020878154811061288757634e487b7160e01b600052603260045260246000fd5b906000526020600020906003020160020181905550816001600160a01b03166342842e0e60048a6040516128bb919061390f565b908152604051908190036020018120600301546001600160a01b03169033906004906128e8908e9061390f565b908152604051908190036020018120600201546001600160e01b031960e086901b16825261291a93929160040161392b565b600060405180830381600087803b15801561293457600080fd5b505af1158015612948573d6000803e3d6000fd5b505050506129558861211a565b505b7f6fbe59ae4d1efe24a3a869068c652b97d698a13961e763519a6c22cb1ca76081873360048a60405161298a919061390f565b908152604051908190036020018120600301546129bd9392916001600160a01b0390911690899089906000908a90613a12565b60405180910390a16001600160a01b0381166000908152600560205260408082209051600192906004906129f2908c9061390f565b908152602001604051809103902060020154815260200190815260200160002081905550600060066000836001600160a01b03166001600160a01b03168152602001908152602001600020600060048a604051612a4f919061390f565b90815260200160405180910390206002015481526020019081526020016000208190555050505050505050565b6000806000806000600486604051612a94919061390f565b908152604051908190036020018120600101546001600160a01b0316915060009081908390632a55205a90600490612acd908c9061390f565b90815260200160405180910390206002015460048b604051612aef919061390f565b9081526020016040518091039020600401546040518363ffffffff1660e01b8152600401612b27929190918252602082015260400190565b604080518083038186803b158015612b3e57600080fd5b505afa158015612b52573d6000803e3d6000fd5b505050506040513d601f19601f82011682018060405250810190612b769190613662565b91509150809450600061271060025434612b909190613dc6565b612b9a9190613db2565b9050612ba68682613d9a565b612bb09034613de5565b9650600083905060048a604051612bc7919061390f565b908152604051908190036020018120600301546001600160a01b03169089156108fc02908a906000818181858888f19350505050158015612c0c573d6000803e3d6000fd5b506040516001600160a01b0382169088156108fc029089906000818181858888f19350505050158015612c43573d6000803e3d6000fd5b506040805160808101825260048183018181526314dbdb1960e21b60608401528252600260208301529151909190612c7c908d9061390f565b9081526020016040518091039020600a016000820151816000019080519060200190612ca9929190613490565b50602091909101516001909101556003546040516001600160a01b039091169083156108fc029084906000818181858888f19350505050158015612cf1573d6000803e3d6000fd5b50846001600160a01b03166342842e0e60048c604051612d11919061390f565b908152602001604051809103902060030160009054906101000a90046001600160a01b03163360048e604051612d47919061390f565b908152604051908190036020018120600201546001600160e01b031960e086901b168252612d7993929160040161392b565b600060405180830381600087803b158015612d9357600080fd5b505af1158015612da7573d6000803e3d6000fd5b505050507f6fbe59ae4d1efe24a3a869068c652b97d698a13961e763519a6c22cb1ca760818a3360048d604051612dde919061390f565b90815260405190819003602001812060030154612e109392916001600160a01b03909116908e908e908e908e90613a12565b60405180910390a16001600160a01b03851660009081526006602052604080822090518290600490612e43908f9061390f565b90815260200160405180910390206002015481526020019081526020016000208190555050505050505050505050565b6000806000806000600487604051612e8b919061390f565b908152604051908190036020018120600101546001600160a01b0316915060009081908390632a55205a90600490612ec4908d9061390f565b90815260200160405180910390206002015460078c604051612ee6919061390f565b90815260200160405180910390208b81548110612f1357634e487b7160e01b600052603260045260246000fd5b9060005260206000209060030201600101546040518363ffffffff1660e01b8152600401612f4b929190918252602082015260400190565b604080518083038186803b158015612f6257600080fd5b505afa158015612f76573d6000803e3d6000fd5b505050506040513d601f19601f82011682018060405250810190612f9a9190613662565b91509150809450600061271060025460078c604051612fb9919061390f565b90815260200160405180910390208b81548110612fe657634e487b7160e01b600052603260045260246000fd5b9060005260206000209060030201600101546130029190613dc6565b61300c9190613db2565b90506130188682613d9a565b60078b604051613028919061390f565b90815260200160405180910390208a8154811061305557634e487b7160e01b600052603260045260246000fd5b9060005260206000209060030201600101546130719190613de5565b96506000839050856001600160a01b031663a9059cbb60048d604051613097919061390f565b908152604051908190036020018120600301546001600160e01b031960e084901b1682526001600160a01b03166004820152602481018b9052604401602060405180830381600087803b1580156130ed57600080fd5b505af1158015613101573d6000803e3d6000fd5b505050506040513d601f19601f82011682018060405250810190613125919061368f565b5060405163a9059cbb60e01b81526001600160a01b0382811660048301526024820189905287169063a9059cbb90604401602060405180830381600087803b15801561317057600080fd5b505af1158015613184573d6000803e3d6000fd5b505050506040513d601f19601f820116820180604052508101906131a8919061368f565b506040805160808101825260048183018181526314dbdb1960e21b606084015282526002602083015291519091906131e1908e9061390f565b9081526020016040518091039020600a01600082015181600001908051906020019061320e929190613490565b506020919091015160019091015560035460405163a9059cbb60e01b81526001600160a01b039182166004820152602481018490529087169063a9059cbb90604401602060405180830381600087803b15801561326a57600080fd5b505af115801561327e573d6000803e3d6000fd5b505050506040513d601f19601f820116820180604052508101906132a2919061368f565b50600160078c6040516132b5919061390f565b90815260200160405180910390208b815481106132e257634e487b7160e01b600052603260045260246000fd5b906000526020600020906003020160020181905550846001600160a01b03166342842e0e60048d604051613316919061390f565b908152602001604051809103902060030160009054906101000a90046001600160a01b03163360048f60405161334c919061390f565b908152604051908190036020018120600201546001600160e01b031960e086901b16825261337e93929160040161392b565b600060405180830381600087803b15801561339857600080fd5b505af11580156133ac573d6000803e3d6000fd5b505050506133b98b61211a565b7f6fbe59ae4d1efe24a3a869068c652b97d698a13961e763519a6c22cb1ca760818b3360048e6040516133ec919061390f565b9081526040519081900360200181206003015461341e9392916001600160a01b03909116908e908e908e908e90613a12565b60405180910390a1600060066000876001600160a01b03166001600160a01b03168152602001908152602001600020600060048e60405161345f919061390f565b9081526020016040518091039020600201548152602001908152602001600020819055505050505050505050505050565b82805461349c90613e28565b90600052602060002090601f0160209004810192826134be5760008555613504565b82601f106134d757805160ff1916838001178555613504565b82800160010185558215613504579182015b828111156135045782518255916020019190600101906134e9565b506135109291506135a3565b5090565b6040518061016001604052806060815260200160006001600160a01b031681526020016000815260200160006001600160a01b031681526020016000815260200160008152602001600081526020016000815260200160006001600160a01b031681526020016000815260200161359e604051806040016040528060608152602001600081525090565b905290565b5b8082111561351057600081556001016135a4565b600082601f8301126135c8578081fd5b813567ffffffffffffffff808211156135e3576135e3613ebe565b604051601f8301601f19908116603f0116810190828211818310171561360b5761360b613ebe565b81604052838152866020858801011115613623578485fd5b8360208701602083013792830160200193909352509392505050565b600060208284031215613650578081fd5b815161365b81613ed4565b9392505050565b60008060408385031215613674578081fd5b825161367f81613ed4565b6020939093015192949293505050565b6000602082840312156136a0578081fd5b8151801515811461365b578182fd5b6000602082840312156136c0578081fd5b813567ffffffffffffffff8111156136d6578182fd5b6136e2848285016135b8565b949350505050565b600080600080600080600060e0888a031215613704578283fd5b873567ffffffffffffffff81111561371a578384fd5b6137268a828b016135b8565b975050602088013561373781613ed4565b9550604088013561374781613ed4565b9450606088013593506080880135925060a088013561376581613ed4565b8092505060c0880135905092959891949750929550565b600080600080600080600080610100898b031215613798578081fd5b883567ffffffffffffffff8111156137ae578182fd5b6137ba8b828c016135b8565b98505060208901356137cb81613ed4565b965060408901356137db81613ed4565b9550606089013594506080890135935060a0890135925060c089013561380081613ed4565b8092505060e089013590509295985092959890939650565b6000806040838503121561382a578182fd5b823567ffffffffffffffff811115613840578283fd5b61384c858286016135b8565b95602094909401359450505050565b60006020828403121561386c578081fd5b5035919050565b600060208284031215613884578081fd5b5051919050565b6000806040838503121561389d578182fd5b8235915060208301356138af81613ed4565b809150509250929050565b600081518084526138d2816020860160208601613dfc565b601f01601f19169290920160200192915050565b60008151604084526138fb60408501826138ba565b602093840151949093019390935250919050565b60008251613921818460208701613dfc565b9190910192915050565b6001600160a01b039384168152919092166020820152604081019190915260600190565b602080825282518282018190526000919060409081850190868401855b828110156139a457815180516001600160a01b031685528681015187860152850151858501526060909301929085019060010161396c565b5091979650505050505050565b6060815260006139c460608301856138ba565b6001600160a01b0393909316602083810191909152828403604093840152601884527f416e20706f7374696e67207761732063616e63656c6c65640000000000000000908401525001919050565b6000610100808352613a268184018b6138ba565b6001600160a01b038a811660208601528981166040860152606085018990526080850188905260a08501879052851660c085015283810360e08501529050613aa681602581527f416e204e46542066726f6d206d61726b6574706c61636520686173206265656e602082015264081cdbdb1960da1b604082015260600190565b9a9950505050505050505050565b608081526000613ac760808301866138ba565b60018060a01b03851660208401528360408401528281036060840152601d81527f416e204e465420776173206c697374656420666f722041756374696f6e000000602082015260408101915050949350505050565b608081526000613b2f60808301866138ba565b60018060a01b03851660208401528360408401528281036060840152601a81527f416e204e465420776173206c697374656420666f722053616c65000000000000602082015260408101915050949350505050565b608081526000613b9760808301876138ba565b6001600160a01b03959095166020830152506040810192909252606090910152919050565b602080825260409082018190527f706f7374696e67207468652073616d65206974656d207768696c6520616e6f74908201527f686572206f6e6520697320616374697665206973206e6f7420616c6c6f776564606082015260800190565b60208082526033908201527f436f6e7472616374206973206e6f7420617070726f76656420746f2074726164604082015272329037b7103132b430b6331037b3103ab9b2b960691b606082015260800190565b60208082526032908201527f506f7374696e67206f66204e4654206e6f74206f776e6572206f662061646472604082015271195cdcc81a5cc81b9bdd08185b1b1bddd95960721b606082015260800190565b6020815260008251610160806020850152613cde6101808501836138ba565b91506020850151613cfa60408601826001600160a01b03169052565b50604085015160608501526060850151613d1f60808601826001600160a01b03169052565b50608085015160a085015260a085015160c085015260c085015160e085015260e0850151610100818187015280870151915050610120613d69818701836001600160a01b03169052565b86015161014086810191909152860151858403601f1901838701529050613d9083826138e6565b9695505050505050565b60008219821115613dad57613dad613e92565b500190565b600082613dc157613dc1613ea8565b500490565b6000816000190483118215151615613de057613de0613e92565b500290565b600082821015613df757613df7613e92565b500390565b60005b83811015613e17578181015183820152602001613dff565b838111156121145750506000910152565b600181811c90821680613e3c57607f821691505b60208210811415613e5d57634e487b7160e01b600052602260045260246000fd5b50919050565b6000600019821415613e7757613e77613e92565b5060010190565b600082613e8d57613e8d613ea8565b500690565b634e487b7160e01b600052601160045260246000fd5b634e487b7160e01b600052601260045260246000fd5b634e487b7160e01b600052604160045260246000fd5b6001600160a01b0381168114611d9d57600080fdfea264697066735822122073f2680381dd5ae5682fa975ac7c4380a31783378f824e646aa350e44d28255c64736f6c63430008040033",
  "linkReferences": {},
  "deployedLinkReferences": {}
}